:020000040000FA
:040000008EEF00F08F
:06002A00D9CFE5FFE1CF94
:10003000D9FF00C0E5FF01C0E5FF02C0E5FF03C036
:10004000E5FF04C0E5FF05C0E5FF06C0E5FF07C00A
:10005000E5FF020EDBCF00F0030EDBCF01F0040E54
:10006000DBCF02F0050EDBCF03F000C004F001C0CF
:1000700005F002C006F003C007F0FF0E0026FF0ED9
:100080000122FF0E0222FF0E03220450051006106B
:10009000071014E04A0E046E010E056E066A076A28
:1000A000FF0E0426FF0E0522FF0E0622FF0E07227A
:1000B0000450051006100710F3E1D7D7E4CF07F07E
:1000C000E4CF06F0E4CF05F0E4CF04F0E4CF03F092
:1000D000E4CF02F0E4CF01F0E4CF00F0E4CFD9FFA9
:1000E000120092928092000EE56E000EE56E000EF8
:1000F000E56EFA0EE56E15EC00F0040EE126808246
:10010000000EE56E000EE56E000EE56EFA0EE56E71
:1001100015EC00F0040EE126E5D7120011EEFFF019
:1001200021EEFFF0F86AA68EA69C71EC00F0FFD7D6
:00000001FF
