:1000000000308A003C2F0000FF00030E8301A10096
:100010000A08A0008A010408A2007708A300780853
:10002000A4007908A5007A08A6007B08A70083131E
:1000300083128B1D1D280B1840288C308400801ED5
:1000400023288C1A43288C308400801C29288C1883
:1000500046288B1E2D280B194928220884002308C6
:10006000F7002408F8002508F9002608FA002708F8
:10007000FB0020088A00210E8300FF0E7F0E09007E
:100080008A110A12F0288A150A1200288A110A1207
:10009000A72B8A110A1218290A108A100A1182073E
:1000A000483465346D3469344F3453342034563415
:1000B000253464342E342534643420342C342034F4
:1000C0004B342D345434653461346D34203453341E
:1000D0002E3441342E3420342834203441346C34CE
:1000E0006534783461346E34643472346534203469
:1000F00043346F346C346F347434203429342034F6
:10010000203400340A108A100A118207313439343D
:100110002D344A3461346E342D3430343934003463
:100120000A108A100A118207313433343A343434D5
:1001300031343A343534373400340A108A100A1115
:10014000820745342D344D34613469346C342034A5
:100150003A34203469346E3466346F344034683451
:1001600065346D346934733473346F346E342E34C3
:1001700063346F346D340D340A340D340A34003472
:100180000A108A100A11820755346E346B346E34AB
:100190006F3477346E34203443346F346D346D34BF
:1001A00061346E34643420343F3421340D340A34E5
:1001B00000340A108A100A11820762342C34483441
:1001C00065346D3469344F3453345F3476345F347E
:1001D000253464342E34253464340D340A34003428
:1001E0000030AD180130013C031D1429F930F7002F
:1001F000F70BF828000000000030061A0130003A22
:10020000031D1429B2012D13061E2D17B20A8B11DE
:100210001030F80006389200BB308316920083122B
:10022000910183168C1483120B108A110A122D2847
:10023000B80A3808053C031D2629B8010130B40767
:100240000318B50A0319B60A0319B70AAA1B3829F5
:100250002A080F3C2C07F700F71B352977080E3CBE
:1002600003183529081088103729081488104829E0
:100270002A08003C0F3C2C07F700F71B462977089B
:100280000E3C0318462908108810482908108814C5
:10029000AB1B5A292B080F3C2C07F700F71B5729DB
:1002A00077080E3C03185729081188115929081599
:1002B00088116A292B08003C0F3C2C07F700F71B1C
:1002C000682977080E3C03186829081188116A29E3
:1002D00008118815AC0A2C080F3C03187029AC01D2
:1002E0003908F700013077020319AB290330770290
:1002F0000319DD290A3077020319052A0C30770229
:1003000003194C2A0F30770203198A2A1430770216
:1003100003198F2A163077020319D62A193077026B
:100320000319152B233077020319462B643077020B
:1003300003194B2B7830770203194C2B8C30770242
:1003400003194D2BA030770203194E2BC8307702CA
:1003500003194F2B572B00302D180130013C031D82
:10036000DC293030F8001F08C73978049F001330AB
:10037000F700F70BB929000000001F151F19BE294F
:100380001E0883160317D8003830F80083120313B1
:100390001F08C73978049F001330F700F70BCE29E8
:1003A000000000001F151F19D3291E08831603170C
:1003B000D900831203138614572B00302D180130F7
:1003C000013C031D042A1F151F19E4291E0883166A
:1003D00003175902E1003030F800831203131F089D
:1003E000C73978049F001330F700F70BF529000098
:1003F00000001F151F19FA291E088316031759023A
:10040000E000831203138610572B00302D180130A3
:10041000013C031D4B2A0830F8001F08C739780437
:100420009F001330F700F70B132A000000001F1580
:100430001F19182A1E0883160317D3000030F8006E
:10044000831203131F08C73978049F001330F70085
:10045000F70B282A000000001F151F192D2A1E085F
:1004600083160317D2001030F800831203131F08FD
:10047000C73978049F001330F700F70B3D2A0000BE
:1004800000001F151F19422A1E0883160317D400E7
:10049000831203130615572B00302D180130013C31
:1004A000031D892A1F151F19532A1E0883160317B7
:1004B0005402DC000830F800831203131F08C73908
:1004C00078049F001330F700F70B642A0000000047
:1004D0001F151F19692A1E08831603175302DB0014
:1004E0000030F800831203131F08C73978049F00F7
:1004F0001330F700F70B7A2A000000001F151F19B0
:100500007F2A1E08831603175202DA008312031390
:100510000611572BBA08031D8E2A8817572B003057
:100520002D180130013C031DD52A2030F8001F088A
:10053000C73978049F001330F700F70B9D2A00009D
:1005400000001F151F19A22A1E0883160317D600C4
:100550002830F800831203131F08C73978049F005E
:100560001330F700F70BB22A000000001F151F1907
:10057000B72A1E0883160317D7001830F800831215
:1005800003131F08C73978049F001330F700F70BD7
:10059000C72A000000001F151F19CC2A1E08831649
:1005A0000317D500831203138615572B00302D181F
:1005B0000130013C031D142B1F151F19DD2A1E08D5
:1005C000831603175502DD002030F8008312031351
:1005D0001F08C73978049F001330F700F70BEE2A85
:1005E000000000001F151F19F32A1E0883160317A9
:1005F0005602DE002830F800831203131F08C739A3
:1006000078049F001330F700F70B042B0000000064
:100610001F151F19092B1E08831603175702DF0029
:100620008312031386112D16572B83160317E2012D
:10063000831203130718212B83160317E20A831270
:10064000031383160317E3018312031387182D2B5B
:1006500083160317E30A8312031383160317E401B7
:10066000831203130719392B83160317E40A831225
:10067000031383160317E50183120313871A452B0F
:1006800083160317E50A83120313572BBA08031DB9
:100690004A2B8813572B572B572B572B572BB90106
:1006A000BA0A3A080A3C0318562BBA01572BB90A62
:1006B0000B118A110A122D2801303102EF3E031866
:1006C0008F2B113E922B0530AA000A30AB008F2BE6
:1006D0000A30AA00AB008F2B0A30AA000530AB000D
:1006E0008F2BF630AA000A30AB008F2BAA01AB018A
:1006F0008F2B0A30AA00F630AB008F2BFB30AA00FC
:10070000F630AB008F2BF630AA00AB008F2BF63003
:10071000AA00FB30AB008F2B8F2B8F2B8F2B8A11D6
:100720000A127A2C0A148A140A118207632B682B86
:100730006C2B712B762B792B7E2B832B872B8F2B7E
:100740008F2B8C2B8F2B8F2B8F2B8D2B8E2B013068
:100750003202F33E0318852C0D3E8A2CAD13061E83
:10076000AD170030AD1B0130013C0319C02B103018
:10077000F8009200BB30831692008C1083128B1508
:10078000852C2F10061E2F14852CAF10061EAF14BB
:100790000030AF180130003A0319D72B1030F800A1
:1007A0009200BB30831692008C1083128B15852C1F
:1007B0002F11061E2F1500302F190130003A031992
:1007C000EA2B1030F8009200BB30831692008C1098
:1007D00083128B15852CAF11061EAF150030AF1993
:1007E0000130003A0319FD2B1030F8009200BB30A5
:1007F000831692008C1083128B15852C2F12061EE7
:100800002F1600302F1A0130003A0319102C103027
:10081000F8009200BB30831692008C1083128B1567
:10082000852CAF12061EAF160030AF1A0130003A09
:100830000319232C1030F8009200BB30831692006D
:100840008C1083128B15852C2F13061E2F17852CC9
:10085000AF13061EAF17852C3010061E3014852CE2
:10086000B010061EB014852C3011061E3015852CD4
:10087000B011061EB01500302F1B0130F700770EA7
:10088000C500C50DE030C5050030AF1B0130F700D5
:10089000F70EF030F70577084504C7000030301830
:1008A0000130F700F70DF70DF70DF830F705770871
:1008B0004704C9000030B0180130F700F70DF70DFC
:1008C000FC30F70577084904CB00003030190130BF
:1008D000F7000310F70D77084B04CD000030B01976
:1008E00001304D04B1000030AD190130013C031D51
:1008F0007A2C5C2BAD161030F8009200BB308316BA
:1009000092008C1083128B15852CB20A8C108A11E0
:100910000A122D280A108A100A158207AE2BC12B45
:10092000C52BD82BEB2BFE2B112C242C282C2C2C5C
:10093000302C342C382C5608F80155020318A32CFF
:100940005508F700AF2CF7010830D700D50DF70D8B
:10095000560877020318F700F80DD70BA62C0034C1
:100960005308F700D31BB82C541DC42C2030BD2CC9
:10097000F709F70A7708D3002D30F80078080C1E25
:10098000BF2C9900541DD4155308D5006430D600EF
:100990009B247708D30078083030031DD62C5418D8
:1009A000DD2CD419DD2C541A2030D82CD41154123B
:1009B000F80778080C1EDA2C99005308D5000A3085
:1009C000D6009B247708D30078083030031DEC2C28
:1009D000D419F12C541A2030F80778080C1EEE2C8C
:1009E00099003030D30753080C1EF42C99000034C2
:1009F000D2015208D920D20AF70077080C1EFE2C2B
:100A000099000B305202031DF92C0130D30018302D
:100A1000D400B0242E300C1E0B2D99003230D300A0
:100A20001830D400B0240D300C1E142D99000A305B
:100A30000C1E182D99008A150A12782865300C1E94
:100A40001F2D99002C300C1E232D99002A08D3004D
:100A50000130D400B0242C300C1E2C2D99002B0812
:100A6000D3000130D400B0240D300C1E352D990078
:100A70000A300C1E392D99008A150A12C5289413C4
:100A80008C11550893000230941B4D2D8C1D462D62
:100A900000308316111B01308312F80000348316D6
:100AA00091159119512D77189112771C91161116E5
:100AB000111A582D83121308F8000034D61B712D1B
:100AC0000F30F700550EF7050A30770203186B2D2B
:100AD0003030F7076D2D5608F70777080C1E6E2D7E
:100AE00099000F30D5050A3055020318792D3030A2
:100AF0007B2DD6135608D50755080C1E7D2D990061
:100B00008A110A12C42D6A300C1E842D99000330FC
:100B1000D2005208FD3C031CCD2D8D119413831679
:100B2000111483128D198D2D941B8D2D8316111C7C
:100B30009B2D8312962D013083125202D400D500D2
:100B40003F25F808031DC52DD5013F258C118316BF
:100B500091149118A92D83125208D5003F25F70151
:100B60004F257808D300831611151119B52D0130C2
:100B700083125202D4002C300C1EBC2D9900540854
:100B8000D5005730D6005E2DCA2D831611151119C8
:100B9000C72D83120230D207892D0D300C1ECE2DA9
:100BA00099000A300C1ED22D99008A150A122F299D
:100BB00078085208D5006430D6009B247708D2000C
:100BC00078083030031DEB2D5318F22DD319F22D78
:100BD000531A2030ED2DD3115312F80778080C1E4C
:100BE000EF2D99005208D5000A30D6009B247708D3
:100BF000D20078083030031D012ED319062E531A67
:100C00002030F80778080C1E032E99003030D207E8
:100C100052080C1E092E990000345708403C031856
:100C2000162E413057020A3ED800192E3030570296
:100C3000D8005808F800003474300C1E1D2E99009E
:100C40002C300C1E212E99003108D200D301D8255A
:100C50000D300C1E292E99000A300C1E2D2E9900E5
:100C60008A150A12822C7A300C1E342E99000D300F
:100C70000C1E382E99000A300C1E3C2E99008A0159
:100C800000288A150A12BB2DD2015208C020D20AB0
:100C9000F70077080C1E4A2E990014305202031DEB
:100CA000452E003431300C1E532E99002C300C1E72
:100CB000572E9900831603172208F7003030770269
:100CC0008312031303196D2E313077020319862E18
:100CD0003230770203199F2EB82E8316060801388A
:100CE0008312D2008316860000308312061801306A
:100CF000D200D3001830D400B0240D300C1E7E2E4C
:100D000099000A300C1E822E9900BA2E831606080E
:100D100040388312D2008316860000308312061BEF
:100D20000130D200D3001830D400B0240D300C1E96
:100D3000972E99000A300C1E9B2E9900BA2E83160E
:100D4000060880388312D200831686000030831292
:100D5000861B0130D200D3001830D400B0240D30EF
:100D60000C1EB02E99000A300C1EB42E9900BA2E1B
:100D70004426BA2E8A150A121E2F32300C1EBE2EA1
:100D800099000D300C1EC22E99000A300C1EC62E82
:100D90009900831603172208F70030307702831278
:100DA00003130319DC2E313077020319F32E32308E
:100DB000770203190A2F212F83160608FE398312A2
:100DC000D20083168600303003172402003A031D38
:100DD000EF2E831203130610F22E831603178312CD
:100DE00003130614232F83160608BF398312D2007B
:100DF00083168600303003172402003A031D062FA5
:100E0000831203130613092F831603178312031388
:100E10000617232F831606087F398312D200831604
:100E20008600303003172402003A031D1D2F831261
:100E300003138613202F83160317831203138617B9
:100E4000232F4426232F8A150A12222F3B30840099
:100E5000831300080319392F0630F800F701F70B48
:100E60002F2FF80B2E2F7B30F700F70B352F800B31
:100E70002C2F8A110A166A28840183131F308305D8
:100E8000063083169F000A30990026309800903073
:100E900083129800FF30A900A9152908831687003E
:100EA00083122916290883168700313093002830D1
:100EB000831294008316941714138312AA01AB01B2
:100EC000AC012D14AD142D15AD152D12AD12AE01C2
:100ED0002D13AD132F10AF102F11AF112F12AF1212
:100EE0002F13AF133010B0103011B011B101B20197
:100EF000B301B401B501B601B701B801B901BA0136
:0A0F00000A1600280A12832F63006E
:10100000CE01CF018C1E1228A0302E07840083173A
:101010008C1E08281A0880002E084E3C031C11283C
:10102000AE0A022801302E02A03E84008317000879
:101030000D3C031D292F831603172008F7004230AB
:1010400077028312031303197628443077020319B9
:101050007A28453077020319C328483077020319EC
:10106000C728493077020319E4284A307702031968
:101070002D294C307702031931294D30770203199D
:101080007E294E3077020319292A4F30770203193F
:10109000A62A503077020319232B52307702031906
:1010A000CE2B543077020319802C57307702031966
:1010B000842C593077020319072D5A30770203190F
:1010C000B92D263077020319BD2D2A307702031976
:1010D000B32E213077020319002F31307702031924
:1010E0001C2F323077020319202F242F8A11F82C5D
:1010F0008A15282F8316031722082D3C031D9D28CF
:1011000030302302003C83120313AA008316031716
:1011100025082D3C031D952830302602003C831203
:101120000313AB009A28831603173030250283126D
:101130000313AB00B6288316031730302202831244
:101140000313AA008316031724082D3C031DB1289E
:1011500030302502003C83120313AB00B6288316FF
:1011600003173030240283120313AB0064300C1ECB
:10117000B72899000D300C1EBB2899000A300C1EB0
:10118000BF289900282F8A111E2D8A15282F30304C
:10119000831603172202003A031DD4288312031377
:1011A0000812D72883160317831203130816683012
:1011B0000C1ED82899000D300C1EDC2899000A302E
:1011C0000C1EE0289900282F69300C1EE528990094
:1011D0002C300C1EE928990083160317620883122D
:1011E0000313D3001830D4008A11B0248A152C3090
:1011F0000C1EF82899008316031763088312031343
:10120000D3001830D4008A11B0248A152C300C1E5B
:101210000729990083160317640883120313D30068
:101220001830D4008A11B0248A152C300C1E1629CF
:10123000990083160317650883120313D30018302F
:10124000D4008A11B0248A150D300C1E252999006E
:101250000A300C1E29299900282F8A11832D8A15FE
:10126000282F3030831603172202003A031D3E292F
:101270008312031388134129831603178312031360
:1012800088173030831603172402003A031D4E29B5
:101290008312031388125129831603178312031331
:1012A00088163030831603172602003A031D5E2984
:1012B0008312031308136129831603178312031380
:1012C00008173030831603172802003A03196E29D5
:1012D0008312031305127129831603178312031354
:1012E00005166C300C1E722999000D300C1E7629E3
:1012F00099000A300C1E7A299900282F83160317AB
:101300002208F70030307702831203130319912962
:10131000313077020319C829323077020319FF29C7
:10132000282A6D300C1E922999002C300C1E96290B
:10133000990083160317540883120313D200D301B4
:101340008A11D8258A152C300C1EA42999008316E1
:101350000317520883120313D200D3018A11D82530
:101360008A152C300C1EB2299900831603175308D6
:1013700083120313D200D3018A11D8258A150D30A8
:101380000C1EC02999000A300C1EC4299900282A75
:101390006D300C1EC92999002C300C1ECD299900E6
:1013A00083160317570883120313D200D3018A113F
:1013B000D8258A152C300C1EDB29990083160317BB
:1013C000560883120313D200D3018A11D8258A1537
:1013D0002C300C1EE9299900831603175508831237
:1013E0000313D200D3018A11D8258A150D300C1EA3
:1013F000F72999000A300C1EFB299900282A6D3024
:101400000C1E002A99002C300C1E042A9900831609
:101410000317590883120313D200D3018A11D82568
:101420008A152C300C1E122A9900831603175808AF
:1014300083120313D200D3018A11D8258A150D30E7
:101440000C1E202A99000A300C1E242A9900282AF2
:10145000282F6E300C1E2A2A99002C300C1E2E2AA2
:101460009900831603175C0883120313D200D3017B
:101470008A11D8258A152C300C1E3C2A9900831617
:1014800003175A0883120313D200D3018A11D825F7
:101490008A152C300C1E4A2A9900831603175B0804
:1014A00083120313D200D3018A11D8258A152C3058
:1014B0000C1E582A9900831603175F088312031322
:1014C000D200D3018A11D8258A152C300C1E662A29
:1014D0009900831603175E0883120313D200D30109
:1014E0008A11D8258A152C300C1E742A990083166F
:1014F00003175D0883120313D200D3018A11D82584
:101500008A152C300C1E822A990083160317610855
:1015100083120313D200D3018A11D8258A152C30E7
:101520000C1E902A99008316031760088312031378
:10153000D200D3018A11D8258A150D300C1E9E2A9F
:1015400099000A300C1EA22A9900282F6F300C1E19
:10155000A72A99002C300C1EAB2A9900831603177A
:10156000540883120313D200D3018A11D8258A1597
:101570002C300C1EB92A99008316031752088312C7
:101580000313D200D3018A11D8258A152C300C1EE2
:10159000C72A990083160317530883120313D20036
:1015A000D3018A11D8258A152C300C1ED52A990012
:1015B00083160317570883120313D200D3018A112D
:1015C000D8258A152C300C1EE32A990083160317A0
:1015D000560883120313D200D3018A11D8258A1525
:1015E0002C300C1EF12A990083160317550883121C
:1015F0000313D200D3018A11D8258A152C300C1E72
:10160000FF2A990083160317590883120313D20087
:10161000D3018A11D8258A152C300C1E0D2B990068
:1016200083160317580883120313D200D3018A11BB
:10163000D8258A150D300C1E1B2B99000A300C1E64
:101640001F2B9900282F831603172208F70030302C
:101650007702831203130319362B313077020319F3
:101660006D2B323077020319A42BCD2B70300C1E5A
:10167000372B99002C300C1E3B2B99008316031737
:101680005C0883120313D200D3018A11D8258A156E
:101690002C300C1E492B9900831603175A0883120D
:1016A0000313D200D3018A11D8258A152C300C1EC1
:1016B000572B9900831603175B0883120313D2007C
:1016C000D3018A11D8258A150D300C1E652B99007F
:1016D0000A300C1E692B9900CD2B70300C1E6E2B1E
:1016E00099002C300C1E722B9900831603175F088B
:1016F00083120313D200D3018A11D8258A152C3006
:101700000C1E802B9900831603175E0883120313A7
:10171000D200D3018A11D8258A152C300C1E8E2BAD
:101720009900831603175D0883120313D200D301B7
:101730008A11D8258A150D300C1E9C2B99000A3071
:101740000C1EA02B9900CD2B70300C1EA52B9900E0
:101750002C300C1EA92B99008316031761088312E5
:101760000313D200D3018A11D8258A152C300C1E00
:10177000B72B990083160317600883120313D20056
:10178000D3018A11D8258A150D300C1EC52B99005E
:101790000A300C1EC92B9900CD2B282F8316031756
:1017A000220883120313D7008A110D268A157808A0
:1017B000CE004E0ED200F030D20583160317230858
:1017C00083120313D7008A110D268A157808520751
:1017D000CE008D1194138316111483128D19E92BE9
:1017E000941BE92B8316111CF72B8312F22B831207
:1017F0004E08D5008A113F258A1583160317250840
:1018000083120313D7008A110D268A157808CF009A
:101810004F0ED200F030D20583160317260883122C
:101820000313D7008A110D268A1578085207CF00B6
:101830004F08D5008A113F258A15831603172808FB
:1018400083120313D7008A110D268A157808CF005A
:101850004F0ED200F030D2058316031729088312E9
:101860000313D7008A110D268A1578085207CF0076
:101870008C118316911491183B2C013083124E0762
:10188000D200D5008A113F258A1572300C1E462CD5
:1018900099004F08013C0318602C0130F7008A11B1
:1018A0004F258A157808D0002C300C1E552C990035
:1018B0005008D200D3018A11D8258A15CF03492CAC
:1018C000F7018A114F258A157808D0002C300C1E9C
:1018D000672C99005008D200D3018A11D8258A15A7
:1018E000831611151119722C0D3083120C1A7A2CD3
:1018F0008316752C99000A300C1E7C2C9900282F19
:101900008A111C2E8A15282F83160317220883128A
:101910000313D7008A110D268A157808CF004F0EC1
:10192000D200F030D2058316031723088312031365
:10193000D7008A110D268A1578085207CF008D111D
:1019400094138316111483128D199F2C941B9F2CB2
:101950008316111CAD2C8312A82C83124F08D500BE
:101960008A113F258A15831603172508831203134E
:10197000D7008A110D268A157808CF004F0ED200A5
:10198000F030D20583160317260883120313D700FD
:101990008A110D268A1578085207CF004F08D50006
:1019A0008A113F258A15831603172808831203130B
:1019B000D7008A110D268A157808CF004F0ED20065
:1019C000F030D20583160317290883120313D700BA
:1019D0008A110D268A1578085207CF004F08D500C6
:1019E0008A113F258A15831611151119F52C7730A8
:1019F00083120C1AFD2C8316F82C99000D300C1E46
:101A0000FF2C99000A300C1E032D9900282F8316F5
:101A10000317220883120313D7008A110D268A1593
:101A20007808CF004F0ED200F030D205831603178E
:101A3000230883120313D7008A110D268A1578080C
:101A40005207CF008D1194138316111483128D1930
:101A5000222D941B222D8316111C302D83122B2D29
:101A600083124F08D5008A113F258A158316031764
:101A7000250883120313D7008A110D268A157808CA
:101A8000CF004F0ED200F030D20583160317260880
:101A900083120313D7008A110D268A15780852077E
:101AA000CF004F08D5008A113F258A1583160317EA
:101AB000280883120313D7008A110D268A15780887
:101AC000D000500ED200F030D2058316031729083B
:101AD00083120313D7008A110D268A15780852073E
:101AE000D0005008D5008A113F258A15D101500831
:101AF00051020318A52D0B30510751075107A03E85
:101B0000840083170008D500D7008A110D268A1596
:101B10007808CF004F0ED200F030D2050C305107BC
:101B200051075107A03E840083170008D600D70054
:101B30008A110D268A1578085207CF004F08D50064
:101B40008A113F258A15D10A772D8316111511198F
:101B5000A72D793083120C1AAF2D8316AA2D990068
:101B60000D300C1EB12D99000A300C1EB52D9900B8
:101B7000282F8A11332E8A15282F03108316031756
:101B8000630D620483120313D20083160317640DDE
:101B9000F700F70DFC30F7057708831203135204A2
:101BA000D30083160317650DF700F70DF70DF83016
:101BB000F7057708831203135304D40026300C1E54
:101BC000DF2D99002A080C1EE32D99002B080C1E0E
:101BD000E72D9900831603175C08831203130C1A70
:101BE000F42D83160317ED2D9900831603175A0859
:101BF000831203130C1AFF2D83160317F82D990077
:101C0000831603175B08831203130C1A0A2E83161C
:101C10000317032E9900831603175F08831203131B
:101C20000C1A152E831603170E2E99008316031710
:101C30005E08831203130C1A202E83160317192E25
:101C40009900831603175D08831203130C1A2B2EB9
:101C500083160317242E9900831603176108831235
:101C600003130C1A362E831603172F2E9900831692
:101C700003176008831203130C1A412E83160317EF
:101C80003A2E9900831603175408831203130C1A73
:101C90004C2E83160317452E9900831603175208FE
:101CA000831203130C1A572E83160317502E990014
:101CB000831603175308831203130C1A622E83161C
:101CC00003175B2E9900831603175708831203131B
:101CD0000C1A6D2E83160317662E990083160317B0
:101CE0005608831203130C1A782E83160317712ECD
:101CF0009900831603175508831203130C1A832EB9
:101D0000831603177C2E9900831603175908831234
:101D100003130C1A8E2E83160317872E9900831631
:101D200003175808831203130C1A992E83160317EE
:101D3000922E990054080C1E9B2E990031080C1EFF
:101D40009F2E990001300C1EA32E990032300C1EDC
:101D5000A72E99000D300C1EAB2E99000A300C1ED8
:101D6000AF2E9900282F831603172108831203131F
:101D7000AA0083160317220883120313AB008316ED
:101D800003172318C92E831203138813CC2E83162E
:101D9000031783120313881783160317A318D62E6D
:101DA000831203138812D92E831603178312031389
:101DB0008816831603172319E32E831203130813BF
:101DC000E62E8316031783120313081783160317CF
:101DD000A31DF02E831203130512F32E831603178F
:101DE0008312031305162A300C1EF42E99000D30B1
:101DF0000C1EF82E99000A300C1EFC2E9900282F7C
:101E000000302D1A0130D20021300C1E052F990010
:101E100052080C1E092F99000D300C1E0D2F990031
:101E20000A300C1E112F990000302D1A0130013C90
:101E3000031D1B2F2D12282F8A11522E8A15282F91
:101E40008A11BD2E8A15282F8A1144268A15282F1B
:0A1E5000AE018C128A110A122D282F
:10200000AA01AB0183160317D201D301D401D50174
:10201000D601D701D801D901DA01DB01DC01DD01EC
:10202000DE01DF01E001E101E201E301E401E5019C
:1020300003130912F701F71D2828073083128101C5
:102040008130840083130008C0390F388000831664
:102050006400813084000008C03977048000831256
:1020600090010030F8009200003083169200831235
:10207000970197019D019D012F3083168500303017
:102080008600A730870000308800091489140915DC
:10209000103083128500860187018801890183162B
:1020A00081179F0183121F083839C1389F001030F3
:1020B000F8009200BB3083169200831291018316C0
:1020C0000108C03901388100831281010530BB004D
:1020D0000A12262F0A16BB013B080A124C200A16C8
:1020E000BB0AF70077080C1E7328990008303B02E2
:1020F000031D6C28A8018B1BA8178B130130D3007C
:102100001830D4000A12B0240A16A81B8B172E30E0
:102110000C1E88289900A8018B1BA8178B1332303E
:10212000D3001830D4000A12B0240A16A81B8B174B
:102130000D30BC003C080A124C200A16BC0AF700FD
:1021400077080C1EA128990031303C02031D9A2803
:10215000BB013B080A1282200A16BB0AF700770867
:102160000C1EB028990009303B02031DA92820301D
:102170000C1EB828990040300C1EBC289900203055
:102180000C1EC0289900BB013B080A1290200A16B9
:10219000BB0AF70077080C1ECB28990008303B02D9
:1021A000031DC4280D300C1ED32899000A300C1EC4
:1021B000D7289900BB013B080A129D200A16BB0ACA
:1021C000F70077080C1EE22899001E303B02031D21
:1021D000DB288B168B1500302D190130013C031DB7
:1021E000F42883168C168312C0308B048A110A12CD
:0221F000822F3C
:02400E003A3D39
:00000001FF
;PIC16F877
