:020000040000FA
:060000008A150A16042F08
:023E0000002F91
:083E0800031383162F3085001F
:103E100030308600A7308700003088000F308900DE
:103E20008312103085000030860018308700A030E3
:103E300088000030890090309800831618151530DE
:103E40009900181218130C128C1298168312861EE1
:103E50002A2F002F6D27F900E33A03193A2F79082A
:103E6000EA3A0319382F7908ED3A0319632F2A2FFC
:103E7000EB30642F6D27F600F5016D27F5046D27F3
:103E8000F1006D27F300F201F001710870020318D0
:103E9000552F7008203E84006D2780007008203E5A
:103EA00084000008F207F00A452F72087306031910
:103EB0005B2FE830642FE730662774270038031D36
:103EC000632FE530642FE43066272A2F8312031313
:103ED00064000C1E682F990008008312031364000D
:103EE0008C1E6F2F1A080800831203137508F70041
:103EF0007608F8000230F400F00171087002031C2B
:103F0000832F01300800213078020319A02F0317F6
:103F100083168C178312031323307802043003199D
:103F20007702031C9B2F20307802003003197702A0
:103F300003189B2FF02F203078020319F02FA52FA4
:103F4000031783168C1383120313770803178D004E
:103F50000030031378020430031977020318B22FDC
:103F60001F30B32F780803178F0003137008203E0B
:103F70008400000803178E000313700A203E84009B
:103F8000000803178C0083160C1555308D00AA30DD
:103F90008D008C14000000008312031364000D1EBA
:103FA000CE2F0D12831603170C110C140000000005
:103FB000831203137008203E8400000803170E06C6
:103FC0000313031DEC2F700A203E84000008031722
:103FD0000C060319F02F0313F40B7D2F003008009B
:0E3FE00002300313F007F70A0319F80A7D2FC9
:02400E003A3F37
:00000001FF
