:1000000008308A0000280000FF00030E8301A100D1
:100010000A08A0008A010408A2007708A300780853
:10002000A4007908A5007A08A6007B08A70083131E
:1000300083128C308400001C1F280C1832282208E0
:1000400084002308F7002408F8002508F900260892
:10005000FA002708FB0020088A00210E8300FF0E0B
:100060007F0E09008A110A127D2A0A108A100A11CD
:100070008207413444344E3453342D3432343034D6
:1000800035343134203400340A108A100A118207C2
:10009000303438342D344A3475346E342D343034A1
:1000A000363400340A108A100A1182073134313490
:1000B0003A34343432343A343334323400340A107B
:1000C0008A100A118207503472346F3464347534E4
:1000D000633474345F346934643420343D34203400
:1000E000253478340A340D3400340A108A100A1189
:1000F0008207503472346F3464347534633474342A
:100100005F34763465347234733469346F346E34EA
:1001100020343D342034253478340A340D3400340E
:100120000A108A100A1182074D346F34743469340E
:100130006F346E3420343D342034253478340A341E
:100140000D3400340A108A100A11820744346534D1
:100150006C34743461345F34783420343D3420346A
:10016000253478340A340D3400340A108A100A1108
:100170008207443465346C34743461345F347934C8
:1001800020343D342034253478340A340D3400349E
:100190000A108A100A1182075334553452344634F7
:1001A0004134433445345F345134553441344C3454
:1001B00049345434593420343D342034253478348F
:1001C0000A340D3400340A108A100A1182074134AF
:1001D0005634453452344134473445345F34503416
:1001E0004934583445344C3420343D34203425349B
:1001F00078340A340D3400340A148A100A11820744
:100200004D344134583449344D3455344D345F34D1
:1002100050344934583445344C3420343D3420343F
:10022000253478340A340D3400340A148A100A1143
:1002300082074F344E344634493447345F344234B5
:1002400049345434533420343D3420342534783404
:100250000A340D3400340A148A100A118207533408
:100260004834553454345434453452345F3455345E
:10027000503450344534523420343D342034253405
:1002800078340A340D3400340A148A100A118207B3
:1002900053344834553454345434453452345F3430
:1002A0004C344F3457344534523420343D342034A8
:1002B000253478340A340D3400340A148A100A11B3
:1002C00082074634523441344D3445345F3450341F
:1002D0004534523449344F3444345F345534503407
:1002E00050344534523420343D342034253478346D
:1002F0000A340D3400340A148A100A118207463475
:10030000523441344D3445345F34503445345234E2
:1003100049344F3444345F344C344F3457344534CB
:10032000523420343D342034253478340A340D34AA
:1003300000340A148A100A11820753344F344434AB
:100340000A340D3400340A148A100A11820750341A
:100350006934783465346C3420343D3420342534A9
:1003600078342C342034253478340A340D34003475
:100370000A148A100A11820745344F3444340A346F
:100380000D3400340A148A100A11820741344434AF
:100390004E345334323430343534313420347234C2
:1003A00065347334653474340A340D3400340A14FB
:1003B0008A100A11820750346F3473342034583451
:1003C0002C34593420343A34203425346C34643499
:1003D000203425346C3464342034403420342534C3
:1003E0006C3475340A340D3400340A148A100A113E
:1003F000FC3E03188A0A820058342C3459342034C5
:100400003A342034253464342C34253464340A34AA
:100410000D34003483162E08B000AF012F08073CBE
:10042000031C372A8312EC116C0883168700831291
:10043000871103108316B00D0318222A83120712A6
:10044000242A8316831207166C126C088316870001
:100450008312EC116C088316870083128715103005
:10046000F700F70B312A00008316AF0A0E2A831219
:1004700000346C166C0883168700A630F700F70B63
:100480003F2A0000AE012E08073C031C692A831294
:10049000EC116C0883168700831287111030F70067
:1004A000F70B502A00006C166C0883168700831225
:1004B000071A5C2A03105D2A03148316AF0D8312FA
:1004C000EC116C0883168700831287158316AE0A19
:1004D000432AFA012F08F8007A08F9008312003441
:1004E00083162C08AE0083120A223922780883165C
:1004F000AD002D08F800831200349E308F00573075
:100500008E00BB0A0319BC0A02308316AC008312AA
:1005100070227808AB00AB1FBD2A03308316AC00F5
:10052000831270227808C10004308316AC00831255
:1005300070227808C20043306B07840041088000B5
:1005400057306B07840042088000EB0A6B08143CAC
:10055000031DAB2AEB01FA014108C11BFA03BD07D9
:100560000318BE0A7A08BE07FA014208C21BFA0342
:10057000BF070318C00A7A08C0070C108A110A12B4
:100580001F287130840000080319D32A0630F800B0
:10059000F701F70BC92AF80BC82A7B30F700F70BD5
:1005A000CF2A800BC62A8A150A123228F31BE92AA1
:1005B0000F30F700720EF7050A3077020318E32AAE
:1005C0003030F707E52A7308F70777080C1EE62A8C
:1005D00099000F30F2050A3072020318F12A303008
:1005E000F32AF3137308F20772080C1EF52A990018
:1005F000003471088038F300A8018B1BA8178B13F7
:1006000073088316AE0083120A22A81B8B17720888
:10061000F3007308F500F4017408073C031C2F2B4A
:10062000EC116C0883168700831287110310F50DF7
:1006300003181C2B07121D2B07166C126C0883164F
:1006400087008312EC116C088316870083128715CC
:100650001030F700F70B2A2B0000F40A0C2B0034A3
:1006600004088316A500F31F432B2D3083120C1AA8
:100670003B2B8316362B99008403F209F309F20A07
:100680000319F30A8316730EF038A100A107E23EA6
:10069000A200323EA40073080F39A207A207A407E4
:1006A000E93EA300A307A307720E0F39A307A4070F
:1006B000A30DA40DA409A40D72080F39A407A10D60
:1006C0000730A0000A30A407A303031C632BA30771
:1006D000A203031C672BA207A103031C6B2BA1071A
:1006E000A003031C6F2BA03084000730250584076E
:1006F000A43004020319942B0008F700031D862B75
:10070000251A922BA519882B2030892B0830A5009B
:100710003030F707770883120C1A902B83168B2B37
:1007200099008316840A782B0008F7003030F70709
:10073000770883120C1A9E2B8316992B990000348C
:1007400004088316A500730EF038A100A107E23E4D
:10075000A200323EA40073080F39A207A207A40723
:10076000E93EA300A307A307720E0F39A307A4074E
:10077000A30DA40DA409A40D72080F39A407A10D9F
:100780000730A0000A30A407A303031CC32BA30750
:10079000A203031CC72BA207A103031CCB2BA10799
:1007A000A003031CCF2BA03084000730250584074D
:1007B000A43004020319F42B0008F700031DE62BF4
:1007C000251AF22BA519E82B2030E92B0830A500BB
:1007D0003030F707770883120C1AF02B8316EB2BB7
:1007E00099008316840AD82B0008F7003030F707E9
:1007F000770883120C1AFE2B8316F92B99008A15A1
:100800000A12D72B7C08F801760203180A2C760806
:10081000F700162CF7010830FD00F60DF70D7C08E7
:1008200077020318F700F80DFD0B0D2C0034740847
:10083000F700F41B1F2C751D2B2C2030242CF709DE
:10084000F70A7708F4002D30F80078080C1E262CE3
:100850009900751DF5157408F6006430FC0002243B
:100860007708F40078083030031D3D2C7518442CAF
:10087000F519442C751A20303F2CF5117512F80724
:1008800078080C1E412C99007408F6000A30FC0010
:1008900002247708F40078083030031D532CF51932
:1008A000582C751A2030F80778080C1E552C990022
:0E08B0003030F40774080C1E5B2C99000034E5
:1010000084011F308305063083169F000A30990043
:1010100026309800903083129800FF30EC00B530F5
:10102000900083160C14C03083128B04BE01BD01E6
:10103000C001BF01C101C201BC01BB01EB01EE0156
:101040006E08133C031C2E2843306E078400800179
:1010500057306E0784008001EE0A20280A30F10024
:101060008A11C12A8A156C126C08831687008312B4
:101070000716EC116C0883168700831287158316F8
:10108000061083120610F10171088A1135208A15A5
:10109000F10AF70077080C1E4B2899000A307102FC
:1010A000031D4428F10171088A1144208A15F10AB0
:1010B000F70077080C1E5A28990009307102031DA9
:1010C000532820300C1E6228990040300C1E6628E0
:1010D000990020300C1E6A289900F10171088A11CC
:1010E00052208A15F10AF70077080C1E752899001E
:1010F00008307102031D6E280D300C1E7D289900EA
:101100000A300C1E812899008C1E84281A087F3909
:10111000ED006D08F700413077020319B82842301E
:1011200077020319E5284330770203191329443065
:10113000770203194129453077020319C92947303D
:1011400077020319512A483077020319AC2A493033
:1011500077020319072B523077020319872B4A3085
:10116000770203199E2B4B3077020319E12B222CB7
:10117000A8018B1BA8178B138316AC018A1183124D
:1011800070228A15A81B8B177808A900F101710835
:101190008A115F208A15F10AF70077080C1ECE2805
:1011A00099000D307102031DC7282908F20057303D
:1011B000F3008A11D6228A150A300C1EDD28990008
:1011C0000D300C1EE1289900232CA8018B1BA817B9
:1011D0008B1301308316AC008A11831270228A159A
:1011E000A81B8B177808AA00F10171088A117520D5
:1011F0008A15F10AF70077080C1EFC2899001230B6
:101200007102031DF5282A08F2005730F3008A11F5
:10121000D6228A150A300C1E0B2999000D300C1E9F
:101220000F299900232CA8018B1BA8178B130230C0
:101230008316AC008A11831270228A15A81B8B17A3
:101240007808AB00F10171088A1190208A15F10A23
:10125000F70077080C1E2A29990009307102031D36
:1012600023292B08F2005730F3008A11D6228A1561
:101270000A300C1E392999000D300C1E3D299900A9
:10128000232CA8018B1BA8178B1303308316AC00EB
:101290008A11831270228A15A81B8B177808AC005C
:1012A000F10171088A11A2208A15F10AF700770866
:1012B0000C1E582999000A307102031D51292C086F
:1012C000F2005730F3008A11D6228A150A300C1E1C
:1012D000672999000D300C1E6B299900A8018B1B02
:1012E000A8178B1304308316AC008A118312702266
:1012F0008A15A81B8B177808AD00F10171088A11B7
:10130000B5208A15F10AF70077080C1E8529990087
:101310000A307102031D7E292D08F2005730F300B8
:101320008A11D6228A150A300C1E942999000D3094
:101330000C1E98299900A8018B1BA8178B13053048
:101340008316AC008A11831270228A15A81B8B1792
:101350007808AE00F10171088A11C8208A15F10AD7
:10136000F70077080C1EB229990012307102031D94
:10137000AB292E08F2005730F3008A11D6228A15C5
:101380000A300C1EC12999000D300C1EC529990088
:10139000232CA8018B1BA8178B1306308316AC00D7
:1013A0008A11831270228A15A81B8B177808AF0048
:1013B000F10171088A11E3208A15F10AF700770814
:1013C0000C1EE029990010307102031DD9292F0845
:1013D000F2005730F3008A11D6228A150A300C1E0B
:1013E000EF2999000D300C1EF3299900A8018B1BE1
:1013F000A8178B1307308316AC008A118312702252
:101400008A15A81B8B177808B000F10171088A11A2
:10141000FC208A15F10AF70077080C1E0D2A9900A6
:1014200010307102031D062A3008F2005730F30015
:101430008A11D6228A150A300C1E1C2A99000D30FA
:101440000C1E202A9900A8018B1BA8178B130A30A9
:101450008316AC008A11831270228A15A81B8B1781
:101460007808B300F10171088A1115218A15F10A73
:10147000F70077080C1E3A2A99000D307102031DFF
:10148000332A3308F2005730F3008A11D6228A1526
:101490000A300C1E492A99000D300C1E4D2A990065
:1014A000232CA8018B1BA8178B130F308316AC00BD
:1014B0008A11831270228A15A81B8B177808B8002E
:1014C000F10171088A112B218A15F10AF7007708BA
:1014D0000C1E682A990010307102031D612A380819
:1014E000F2005730F3008A11D6228A150A300C1EFA
:1014F000772A99000D300C1E7B2A9900A8018B1BBE
:10150000A8178B130E308316AC008A118312702239
:101510008A15A81B8B177808B700F10171088A118A
:1015200044218A15F10AF70077080C1E952A9900C4
:1015300010307102031D8E2A3708F2005730F30075
:101540008A11D6228A150A300C1EA42A99000D3061
:101550000C1EA82A9900232CA8018B1BA8178B13FB
:1015600011308316AC008A11831270228A15A81BD1
:101570008B177808BA00F10171088A115D218A156C
:10158000F10AF70077080C1EC32A99001530710282
:10159000031DBC2A3A08F2005730F3008A11D62204
:1015A0008A150A300C1ED22A99000D300C1ED62A3C
:1015B0009900A8018B1BA8178B1310308316AC0061
:1015C0008A11831270228A15A81B8B177808B9001C
:1015D000F10171088A117B218A15F10AF700770859
:1015E0000C1EF02A990015307102031DE92A3908F2
:1015F000F2005730F3008A11D6228A150A300C1EE9
:10160000FF2A99000D300C1E032B9900232C0A3061
:10161000F1000830F2008A11F9228A15F1017108EF
:101620008A1199218A15F10AF70077080C1E162BEA
:10163000990005307102031D0F2BEE016E0F212B57
:10164000702BA8018B1BA8178B130C308316AC00D2
:101650008A11831270228A15A81B8B177808EF0055
:10166000EF1B212BA8018B1BA8178B130D308316A2
:10167000AC008A11831270228A15A81B8B17780878
:10168000F000F10171088A11A3218A15F10AF7000F
:1016900077080C1E492B990008307102031D422B5C
:1016A0007008F2005730F3008A11D6228A152C30C8
:1016B0000C1E582B990020300C1E5C2B99006F08D3
:1016C000F2005730F3008A11D6228A150A300C1E18
:1016D000672B99000D300C1E6B2B9900EE0A1E2B08
:1016E000F10171088A11B8218A15F10AF70077080B
:1016F0000C1E782B990005307102031D712B0A30E6
:10170000F1004030F2008A11F9228A15232C0A30A8
:10171000F1008030F2008A11F9228A15F101710876
:101720008A11C2218A15F10AF70077080C1E962B40
:10173000990010307102031D8F2B232CF1017108C9
:101740008A11D7218A15F10AF70077080C1EA62BFB
:1017500099000A307102031D9F2B103084003E084F
:10176000F3003D08F2008A1130238A1520300C1E48
:10177000B72B9900103084004008F3003F08F200B6
:101780008A1130238A1520300C1EC42B990040305A
:101790000C1EC82B990020300C1ECC2B9900103049
:1017A00084003C08F3003B08F2008A11A02B8A1544
:1017B0000A300C1ED92B99000D300C1EDD2B990020
:1017C000232CEE016E08133C031C212C83160C10F5
:1017D000433083126E0784000008F10057306E0713
:1017E00084000008F200F30173088A11F5218A15BC
:1017F000F30AF70077080C1EFB2B990006307302E2
:10180000031DF42B7108F4001830F5008A11172419
:101810008A152C300C1E0A2C99007208F40018301E
:10182000F5008A1117248A150A300C1E152C990010
:101830000D300C1E192C990083160C148312EE0A1D
:0A184000E22B232C232C84286300E4
:02400E00FA3F77
:00000001FF
;PIC16F877
