:1000000018308A00012B0000FF00030E8301A100BD
:100010000A08A0008A010408A2007708A300780853
:10002000A4007908A5007A08A6007B08A70083131E
:1000300083128B1D1D280B1840288C308400801ED5
:1000400023288C1A43288C308400801C29288C1883
:1000500046288B1E2D280B194928220884002308C6
:10006000F7002408F8002508F9002608FA002708F8
:10007000FB0020088A00210E8300FF0E7F0E09007E
:100080008A110A1213298A150A1265288A110A127E
:10009000C92B8A110A123B290A108A100A118207F9
:1000A000483465346D3469344F3453342034563415
:1000B000253464342E342534643420342C342034F4
:1000C0004B342D345434653461346D34203453341E
:1000D0002E3441342E3420342834203441346C34CE
:1000E0006534783461346E34643472346534203469
:1000F00043346F346C346F347434203429342034F6
:10010000203400340A108A100A1182073334303444
:100110002D344134753467342D3430343434003464
:100120000A108A100A118207303439343A343334D1
:1001300037343A343334303400340A108A100A1118
:10014000820745342D344D34613469346C342034A5
:100150003A34203469346E3466346F344034683451
:1001600065346D346934733473346F346E342E34C3
:1001700063346F346D340D340A340D340A34003472
:100180000A108A100A11820755346E346B346E34AB
:100190006F3477346E34203443346F346D346D34BF
:1001A00061346E34643420343F3421340D340A34E5
:1001B00000340A108A100A11820762342C34483441
:1001C00065346D3469344F3453345F3476345F347E
:1001D000253464342E34253464340D340A34003428
:1001E0000A108A100A11F73E03188A0A8200443462
:1001F000E9346D3461347234723461346734653497
:10020000203465346E3420346D346F346434653496
:10021000203449346E347434653472346E34653449
:100220000D340A3400340030AD180130013C031D98
:100230003729F930F700F70B1B29000000000030C8
:10024000061A0130003A031D3729B2012D13061E8C
:100250002D17B20A8B111030F80006389200BB300F
:10026000831692008312910183168C1483120B1053
:100270008A110A122D28B80A3808053C031D49299D
:10028000B8010130B4070318B50A0319B60A0319F7
:10029000B70AAA1B5B292A080F3C2C07F700F71B9B
:1002A000582977080E3C03185829081088105A2935
:1002B000081488106B292A08003C0F3C2C07F70013
:1002C000F71B692977080E3C031869290810881064
:1002D0006B2908108814AB1B7D292B080F3C2C07B9
:1002E000F700F71B7A2977080E3C03187A290811C2
:1002F00088117C29081588118D292B08003C0F3C9A
:100300002C07F700F71B8B2977080E3C03188B2965
:10031000081188118D2908118815AC0A2C080F3C8A
:1003200003189329AC013908F7000130770203194B
:10033000CE29033077020319002A0A307702031905
:10034000282A0C30770203196F2A0F30770203191D
:10035000AD2A143077020319B22A16307702031936
:10036000F92A193077020319382B23307702031941
:10037000692B6430770203196E2B783077020319EA
:100380006F2B8C3077020319702BA0307702031982
:10039000712BC83077020319722B792B00302D187E
:1003A0000130013C031DFF293030F8001F08C73918
:1003B00078049F001330F700F70BDC2900000000E1
:1003C0001F151F19E1291E0883160317D80038309E
:1003D000F800831203131F08C73978049F001330F5
:1003E000F700F70BF129000000001F151F19F6296F
:1003F0001E0883160317D900831203138614792B62
:1004000000302D180130013C031D272A1F151F192C
:10041000072A1E08831603175902E1003030F8003E
:10042000831203131F08C73978049F001330F700A5
:10043000F70B182A000000001F151F191D2A1E089F
:10044000831603175902E000831203138610792BD9
:1004500000302D180130013C031D6E2A0830F800D1
:100460001F08C73978049F001330F700F70B362AAE
:10047000000000001F151F193B2A1E0883160317D2
:10048000D3000030F800831203131F08C739780423
:100490009F001330F700F70B4B2A000000001F15D8
:1004A0001F19502A1E0883160317D2001030F800B7
:1004B000831203131F08C73978049F001330F70015
:1004C000F70B602A000000001F151F19652A1E087F
:1004D00083160317D400831203130615792B0030FB
:1004E0002D180130013C031DAC2A1F151F19762A57
:1004F0001E08831603175402DC000830F80083122C
:1005000003131F08C73978049F001330F700F70B57
:10051000872A000000001F151F198C2A1E08831649
:1005200003175302DB000030F800831203131F0887
:10053000C73978049F001330F700F70B9D2A00009D
:1005400000001F151F19A22A1E0883160317520246
:10055000DA00831203130611792BBA08031DB12A9E
:100560008817792B00302D180130013C031DF82A23
:100570002030F8001F08C73978049F001330F700B7
:10058000F70BC02A000000001F151F19C52A1E08FE
:1005900083160317D6002830F800831203131F08B0
:1005A000C73978049F001330F700F70BD52A0000F5
:1005B00000001F151F19DA2A1E0883160317D7001B
:1005C0001830F800831203131F08C73978049F00FE
:1005D0001330F700F70BEA2A000000001F151F195F
:1005E000EF2A1E0883160317D500831203138615FE
:1005F000792B00302D180130013C031D372B1F15BE
:100600001F19002B1E08831603175502DD0020302A
:10061000F800831203131F08C73978049F001330B2
:10062000F700F70B112B000000001F151F19162BE8
:100630001E08831603175602DE002830F8008312C6
:1006400003131F08C73978049F001330F700F70B16
:10065000272B000000001F151F192C2B1E088316C6
:1006600003175702DF008312031386112D16792B0F
:1006700083160317E201831203130718442B831612
:100680000317E20A8312031383160317E30183128D
:1006900003138718502B83160317E30A83120313DF
:1006A00083160317E4018312031307195C2B8316C7
:1006B0000317E40A8312031383160317E501831259
:1006C0000313871A682B83160317E50A8312031393
:1006D000792BBA08031D6D2B8813792B792B792B75
:1006E000792B792BB901BA0A3A080A3C031CBA01E2
:1006F000792BB90A0B118A110A122D280130310207
:10070000EF3E0318B12B113EB42B0530AA000A307E
:10071000AB00B12B0A30AA00AB00B12B0A30AA0003
:100720000530AB00B12BF630AA000A30AB00B12B7C
:10073000AA01AB01B12B0A30AA00F630AB00B12BF5
:10074000FB30AA00F630AB00B12BF630AA00AB00AC
:10075000B12BF630AA00FB30AB00B12BB12BB12B83
:10076000B12B8A110A129C2C0A148A140A118207CE
:10077000852B8A2B8E2B932B982B9B2BA02BA52B79
:10078000A92BB12BB12BAE2BB12BB12BB12BAF2B96
:10079000B02B01303202F33E0318A72C0D3EAC2CD7
:1007A000AD13061EAD170030AD1B0130013C03191F
:1007B000E22B1030F8009200BB30831692008C10B0
:1007C00083128B15A72C2F10061E2F14A72CAF10E9
:1007D000061EAF140030AF180130003A0319F92B90
:1007E0001030F8009200BB30831692008C108312F8
:1007F0008B15A72C2F11061E2F1500302F19013035
:10080000003A03190C2C1030F8009200BB3083160C
:1008100092008C1083128B15A72CAF11061EAF15FA
:100820000030AF190130003A03191F2C1030F800C6
:100830009200BB30831692008C1083128B15A72C6C
:100840002F12061E2F1600302F1A0130003A0319FE
:10085000322C1030F8009200BB30831692008C10BE
:1008600083128B15A72CAF12061EAF160030AF1ADD
:100870000130003A0319452C1030F8009200BB30CB
:10088000831692008C1083128B15A72C2F13061E33
:100890002F17A72CAF13061EAF17A72C3010061E5C
:1008A0003014A72CB010061EB014A72C3011061E51
:1008B0003015A72CB011061EB01500302F1B0130CB
:1008C000F700770EE400E40DE030E4050030AF1BE4
:1008D0000130F700F70EF030F70577086404E60002
:1008E000003030180130F700F70DF70DF70DF83034
:1008F000F70577086604E8000030B0180130F7000B
:10090000F70DF70DFC30F70577086804EA000030B2
:1009100030190130F7000310F70D77086A04EC0076
:100920000030B01901306C04B1000030AD19013055
:10093000013C031D9C2C7E2BAD161030F80092005C
:10094000BB30831692008C1083128B15A72CB20A31
:100950008C108A110A122D280A108A100A15820793
:10096000D02BE32BE72BFA2B0D2C202C332C462CF1
:100970004A2C4E2C522C562C5A2C7508F801740215
:100980000318C52C7408F700D12CF7010830F600C5
:10099000F40DF70D750877020318F700F80DF60B44
:1009A000C82C00347208F700F21BDA2C731DE62CF9
:1009B0002030DF2CF709F70A7708F2002D30F80015
:1009C00078080C1EE12C9900731DF3157208F400D1
:1009D0006430F500BD247708F20078083030031D3C
:1009E000F82C7318FF2CF319FF2C731A2030FA2CF3
:1009F000F3117312F80778080C1EFC2C990072088A
:100A0000F4000A30F500BD247708F2007808303091
:100A1000031D0E2DF319132D731A2030F8077808D3
:100A20000C1E102D99003030F20772080C1E162D86
:100A300099000034F1017108D920F10AF700770814
:100A40000C1E202D99000B307102031D1B2D01304F
:100A5000F2001830F300D2242E300C1E2D2D9900F8
:100A60003230F2001830F300D2240D300C1E362D37
:100A700099000A300C1E3A2D99008A150A12ED28A9
:100A800065300C1E412D99002C300C1E452D99000F
:100A90002A08F2000130F300D2242C300C1E4E2D17
:100AA00099002B08F2000130F300D2240D300C1E07
:100AB000572D99000A300C1E5B2D99008A150A12D9
:100AC0003A2994138C11740893000230941B6F2DF3
:100AD0008C1D682D00308316111B01308312F80025
:100AE0000034831691159119732D77189112771C84
:100AF00091161116111A7A2D83121308F80000347A
:100B0000F51B932D0F30F700740EF7050A307702AE
:100B100003188D2D3030F7078F2D7508F7077708EC
:100B20000C1E902D99000F30F4050A307402031842
:100B30009B2D30309D2DF5137508F40774080C1E9D
:100B40009F2D99008A110A12E82D6A300C1EA62DDD
:100B500099000330F1007108FD3C031CF12D8D114B
:100B600094138316111483128D19AF2D941BAF2D7E
:100B70008316111CBD2D8312B82D01307102F300B4
:100B8000F40083126125F808031DE92DF4016125A5
:100B90008C11831691149118CB2D7108F4008312D7
:100BA0006125F70171257808F200831611151119D6
:100BB000D72D01307102F3002C3083120C1AE22D74
:100BC0008316DD2D99007308F4005730F500802D51
:100BD000EE2D831611151119EB2D83120230F1073A
:100BE000AB2D0D300C1EF22D99000A300C1EF62D87
:100BF00099008A150A12A42978087108F400643053
:100C0000F500BD247708F10078083030031D0F2E61
:100C10007218162EF219162E721A2030112EF21199
:100C20007212F80778080C1E132E99007108F40050
:100C30000A30F500BD247708F10078083030031D34
:100C4000252EF2192A2E721A2030F80778080C1E69
:100C5000272E99003030F10771080C1E2D2E9900B7
:100C6000003471300C1E322E990000304102F10028
:100C70004208F2001830031C1930F2027208F30027
:100C800072080C1E412E990000304102F10042080A
:100C9000F2001830031C1930F2027108F3007108D9
:100CA0000C1E502E9900BC013C08073C031C642E0E
:100CB000DA303C07840083170008F10071080C1E2D
:100CC0005F2E9900BC0A542EBC013C08073C031C53
:100CD000752ED2303C07840083170008F10071089C
:100CE0000C1E702E9900BC0A652E3E080C1E762E36
:100CF0009900003006180130F10071080C1E7E2E9C
:100D000099008A150A12452C7608403C03188D2E4E
:100D1000413076020A3EFC00902E30307602FC0014
:100D20007C08F80000348C1E932E1A0883160317D3
:100D3000A000831203138C1AA02E83160317992E7A
:100D40001A0883160317A1002008FA00210883124D
:100D50000313C10018307A07C20083160317200856
:100D6000F2002108F1001A30FA00FF3083128D00E2
:100D70007A088F0071088C0072088E0083168C1719
:100D80000C15831203130B08F8008B13831603173B
:100D900055308D00AA308D008C14000000008C1896
:100DA000CF2E0C117808831203138B04BE01B012EE
:100DB00073300C1ED92E99008A150A12FB2C743040
:100DC0000C1EE02E99002C300C1EE42E99003108E8
:100DD000F100F201FC250D300C1EEC2E99000A30BA
:100DE0000C1EF02E99008A150A12FF2C8C1EF62E6E
:100DF0001A0883160317A000831203138C1A032FFB
:100E000083160317FC2E1A0883160317A100200867
:100E1000FA00210883120313C10018307A07C200B8
:100E200042081A3C0318182F1A30C200FF30C100C4
:100E300030121830C000BF0140084202031C5F2F6F
:100E4000031D262F41083F0203185F2F301A2A2F57
:100E500088122B2F88168C1E2B2F1A08BC00F2012B
:100E60003C08F1004008FA003F0803178D007A089B
:100E70008F0071088C0072088E0083168C170C1579
:100E8000831203130B08F8008B13831603175530D6
:100E90008D00AA308D008C14000000008C184E2F9D
:100EA0000C117808831203138B041030B0063C0831
:100EB0000C1E582F9900BF0A0319C00A1C2F881254
:100EC000FF30C200C10075300C1E642F99008A15D6
:100ED0000A12032DFF30C200C10008130516AA0133
:100EE000AB01081278300C1E732F99008A150A1274
:100EF0008A2D7A300C1E7A2F99000D300C1E7E2F11
:100F000099000A300C1E822F99008A0100288A1548
:100F10000A12402EF1017108C020F10AF70077088B
:100F20000C1E902F990014307102031D8B2F00347A
:100F300031300C1E992F99002C300C1E9D2F9900DA
:100F4000831603172208F700303077028312031349
:100F50000319B32F313077020319CA2F32307702C9
:100F60000319E12FF82F831606080138F1008600D7
:100F70000030831206180130F100F2001830F3003F
:100F8000D2240D300C1EC22F99000A300C1EC62F21
:100F90009900FA2F831606084038F10086000030C9
:100FA0008312061B0130F100F2001830F300D22446
:100FB0000D300C1ED92F99000A300C1EDD2F990020
:100FC000FA2F831606088038F1008600003083125D
:100FD000861B0130F100F2001830F300D2240D30EE
:100FE0000C1EF02F99000A300C1EF42F9900FA2FD6
:0A0FF0008A27FA2F8A150A129E2F95
:1010000032300C1E012899000D300C1E0528990065
:101010000A300C1E09289900831603172208F700CE
:10102000303077028312031303191F2831307702FF
:101030000319342832307702031949285E288316B1
:101040000608FE39F1008600303003172402003A0A
:10105000031D302883120313061033288316031749
:10106000831203130614622883160608BF39F100A1
:101070008600303003172402003A031D45288312EE
:101080000313061348288316031783120313061746
:101090006228831606087F39F10086003030031776
:1010A0002402003A031D5A288312031386135D2875
:1010B0008316031783120313861762288A118A275F
:1010C0008A1562288A150A12A12FED01EE018C1EE5
:1010D0007728A0302E07840083178C1E6D281A08ED
:1010E00080002E084E3C031C7628AE0A672801308B
:1010F0002E02A03E8400831700080D3C031DA72F7D
:10110000831603172008F700423077028312031377
:101110000319EB28443077020319EF284530770292
:10112000031938294830770203193C2949307702DE
:10113000031959294A3077020319A2294C30770242
:101140000319A6294D3077020319F3294E3077028F
:1011500003199E2A4F30770203191B2B5030770258
:101160000319982B513077020319432C5230770220
:101170000319472C533077020319F92C54307702A6
:101180000319FD2C553077020319012D57307702D2
:101190000319052D583077020319882D593077022D
:1011A00003198C2D5A30770203193E2E2630770210
:1011B0000319422E2A3077020319332F2130770288
:1011C0000319802F3130770203199C2F32307702B8
:1011D0000319A02FA22F8A111A2D8A15A62F831664
:1011E000031722082D3C031D122930302302003C36
:1011F00083120313AA008316031725082D3C031D31
:101200000A2930302602003C83120313AB000F2959
:10121000831603173030250283120313AB002B29EA
:10122000831603173030220283120313AA00831699
:10123000031724082D3C031D262930302502003CCD
:1012400083120313AB002B298316031730302402BB
:1012500083120313AB0064300C1E2C2999000D304F
:101260000C1E302999000A300C1E34299900A62F33
:101270008A11402D8A15A62F3030831603172202BB
:10128000003A031D49298312031308124C298316BF
:10129000031783120313081668300C1E4D2999009A
:1012A0000D300C1E512999000A300C1E5529990049
:1012B000A62F69300C1E5A2999002C300C1E5E296D
:1012C0009900831603176208F2001830F3008A11A0
:1012D00083120313D2248A152C300C1E6D29990019
:1012E000831603176308F2001830F3008A11831283
:1012F0000313D2248A152C300C1E7C2999008316E6
:1013000003176408F2001830F3008A1183120313E4
:10131000D2248A152C300C1E8B29990083160317B2
:101320006508F2001830F3008A1183120313D224E7
:101330008A150D300C1E9A2999000A300C1E9E2920
:101340009900A62F8A11A52D8A15A62F3030831655
:1013500003172202003A031DB329831203138813D3
:10136000B6298316031783120313881730308316A8
:1013700003172402003A031DC329831203138812A2
:10138000C629831603178312031388163030831679
:1013900003172602003A031DD329831203130813EF
:1013A000D6298316031783120313081730308316C8
:1013B00003172802003A0319E329831203130512C5
:1013C000E629831603178312031305166C300C1ECF
:1013D000E72999000D300C1EEB2999000A300C1EEC
:1013E000EF299900A62F831603172208F700303043
:1013F0007702831203130319062A31307702031987
:101400003D2A323077020319742A9D2A6D300C1E52
:10141000072A99002C300C1E0B2A990083160317FB
:101420005408F100F2018A1183120313FC258A1576
:101430002C300C1E192A9900831603175208F1004C
:10144000F2018A1183120313FC258A152C300C1E1D
:10145000272A9900831603175308F100F2018A1115
:1014600083120313FC258A150D300C1E352A9900B2
:101470000A300C1E392A99009D2A6D300C1E3E2A16
:1014800099002C300C1E422A990083160317570826
:10149000F100F2018A1183120313FC258A152C3006
:1014A0000C1E502A9900831603175608F100F2010A
:1014B0008A1183120313FC258A152C300C1E5E2A18
:1014C0009900831603175508F100F2018A1183125F
:1014D0000313FC258A150D300C1E6C2A99000A3066
:1014E0000C1E702A99009D2A6D300C1E752A9900D9
:1014F0002C300C1E792A9900831603175908F10025
:10150000F2018A1183120313FC258A152C300C1E5C
:10151000872A9900831603175808F100F2018A11EF
:1015200083120313FC258A150D300C1E952A990091
:101530000A300C1E992A99009D2AA62F6E300C1E87
:101540009F2A99002C300C1EA32A9900831603179A
:101550005C08F100F2018A1183120313FC258A153D
:101560002C300C1EB12A9900831603175A08F1007B
:10157000F2018A1183120313FC258A152C300C1EEC
:10158000BF2A9900831603175B08F100F2018A1144
:1015900083120313FC258A152C300C1ECD2A9900CA
:1015A000831603175F08F100F2018A1183120313F7
:1015B000FC258A152C300C1EDB2A99008316031794
:1015C0005E08F100F2018A1183120313FC258A15CB
:1015D0002C300C1EE92A9900831603175D08F100D0
:1015E000F2018A1183120313FC258A152C300C1E7C
:1015F000F72A9900831603176108F100F2018A1196
:1016000083120313FC258A152C300C1E052B990020
:10161000831603176008F100F2018A118312031385
:10162000FC258A150D300C1E132B99000A300C1E58
:10163000172B9900A62F6F300C1E1C2B99002C30F5
:101640000C1E202B9900831603175408F100F20199
:101650008A1183120313FC258A152C300C1E2E2BA5
:101660009900831603175208F100F2018A118312C0
:101670000313FC258A152C300C1E3C2B9900831675
:1016800003175308F100F2018A1183120313FC259A
:101690008A152C300C1E4A2B990083160317570805
:1016A000F100F2018A1183120313FC258A152C30F4
:1016B0000C1E582B9900831603175608F100F201EF
:1016C0008A1183120313FC258A152C300C1E662BFD
:1016D0009900831603175508F100F2018A1183124D
:1016E0000313FC258A152C300C1E742B99008316CD
:1016F00003175908F100F2018A1183120313FC2524
:101700008A152C300C1E822B99008316031758085B
:10171000F100F2018A1183120313FC258A150D30A2
:101720000C1E902B99000A300C1E942B9900A62FAA
:10173000831603172208F700303077028312031351
:101740000319AB2B313077020319E22B32307702C9
:101750000319192C422C70300C1EAC2B99002C3024
:101760000C1EB02B9900831603175C08F100F201E0
:101770008A1183120313FC258A152C300C1EBE2BF4
:101780009900831603175A08F100F2018A11831297
:101790000313FC258A152C300C1ECC2B99008316C4
:1017A00003175B08F100F2018A1183120313FC2571
:1017B0008A150D300C1EDA2B99000A300C1EDE2B18
:1017C0009900422C70300C1EE32B99002C300C1E1B
:1017D000E72B9900831603175F08F100F2018A11C5
:1017E00083120313FC258A152C300C1EF52B99004F
:1017F000831603175E08F100F2018A1183120313A6
:10180000FC258A152C300C1E032C99008316031717
:101810005D08F100F2018A1183120313FC258A1579
:101820000D300C1E112C99000A300C1E152C99003D
:10183000422C70300C1E1A2C99002C300C1E1E2CC1
:101840009900831603176108F100F2018A118312CF
:101850000313FC258A152C300C1E2C2C99008316A2
:1018600003176008F100F2018A1183120313FC25AB
:101870008A150D300C1E3A2C99000A300C1E3E2C95
:101880009900422CA62F8A11312E8A15A62F831675
:1018900003172208F6008A118312031384268A157F
:1018A0007808ED006D0EF100F030F1058316031796
:1018B0002308F6008A118312031384268A157808F8
:1018C0007107ED008D1194138316111483128D1975
:1018D000622C941B622C8316111C702C83126B2CAF
:1018E00083126D08F4008A1161258A158316031787
:1018F0002508F6008A118312031384268A157808B6
:10190000EE006E0EF100F030F10583160317260885
:10191000F6008A118312031384268A15780871074A
:10192000EE006E08F4008A1161258A1583160317EC
:101930002808F6008A118312031384268A15780872
:10194000EE006E0EF100F030F10583160317290842
:10195000F6008A118312031384268A15780871070A
:10196000EE008C11831691149118B42C013083125F
:101970006D07F100F4008A1161258A1572300C1E82
:10198000BF2C99006E08013C0318D92C0130F700D8
:101990008A1171258A157808EF002C300C1ECE2C88
:1019A00099006F08F100F2018A11FC258A15EE03F7
:1019B000C22CF7018A1171258A157808EF002C30A6
:1019C0000C1EE02C99006F08F100F2018A11FC2531
:1019D0008A15831611151119EB2C0D3083120C1A70
:1019E000F32C8316EE2C99000A300C1EF52C99006E
:1019F000A62F8A11932E8A15A62F8A11DF2E8A15FB
:101A0000A62F8A11F62E8A15A62F831603172208F1
:101A1000F6008A118312031384268A157808EE00D3
:101A20006E0EF100F030F105831603172308F6005F
:101A30008A118312031384268A1578087107EE0031
:101A40008D1194138316111483128D19202D941B5C
:101A5000202D8316111C2E2D8312292D83126E0822
:101A6000F4008A1161258A15831603172508F600EC
:101A70008A118312031384268A157808EE006E0EED
:101A8000F100F030F105831603172608F6008A11DD
:101A90008312031384268A1578087107EE006E08F6
:101AA000F4008A1161258A15831603172808F600A9
:101AB0008A118312031384268A157808EE006E0EAD
:101AC000F100F030F105831603172908F6008A119A
:101AD0008312031384268A1578087107EE006E08B6
:101AE000F4008A1161258A15831611151119762DB6
:101AF000773083120C1A7E2D8316792D99000D30C4
:101B00000C1E802D99000A300C1E842D9900A62FE2
:101B10008A116A2F8A15A62F831603172208F6004A
:101B20008A118312031384268A157808EE006E0E3C
:101B3000F100F030F105831603172308F6008A112F
:101B40008312031384268A1578087107EE008D111D
:101B500094138316111483128D19A72D941BA72D8E
:101B60008316111CB52D8312B02D83126E08F4005C
:101B70008A1161258A15831603172508F6008A1134
:101B80008312031384268A157808EE006E0EF10086
:101B9000F030F105831603172608F6008A11831228
:101BA000031384268A1578087107EE006E08F40086
:101BB0008A1161258A15831603172808F6008A11F1
:101BC0008312031384268A157808EF006F0EF10044
:101BD000F030F105831603172908F6008A118312E5
:101BE000031384268A1578087107EF006F08F40044
:101BF0008A1161258A15F0016F08700203182A2ED8
:101C00000B30700770077007A03E84008317000830
:101C1000F400F6008A1184268A157808EE006E0E0C
:101C2000F100F030F1050C30700770077007A03E2E
:101C3000840083170008F500F6008A1184268A15AF
:101C400078087107EE006E08F4008A1161258A1584
:101C5000F00AFC2D8316111511192C2E79308312E0
:101C60000C1A342E83162F2E99000D300C1E362E92
:101C700099000A300C1E3A2E9900A62F8A11792F4E
:101C80008A15A62F031083160317630D6204F10053
:101C9000640DF700F70DFC30F70577087104F200CA
:101CA000650DF700F70DF70DF830F70577087204AA
:101CB000F3002630831203130C1A612E83160317C8
:101CC0005A2E99002A080C1E632E99002B080C1E10
:101CD000672E9900831603175C08831203130C1AEE
:101CE000742E831603176D2E9900831603175A0856
:101CF000831203130C1A7F2E83160317782E990074
:101D0000831603175B08831203130C1A8A2E83169B
:101D10000317832E9900831603175F08831203139A
:101D20000C1A952E831603178E2E9900831603170F
:101D30005E08831203130C1AA02E83160317992E24
:101D40009900831603175D08831203130C1AAB2E38
:101D500083160317A42E99008316031761088312B4
:101D600003130C1AB62E83160317AF2E9900831691
:101D700003176008831203130C1AC12E831603176E
:101D8000BA2E9900831603175408831203130C1AF2
:101D9000CC2E83160317C52E9900831603175208FD
:101DA000831203130C1AD72E83160317D02E990013
:101DB000831603175308831203130C1AE22E83169B
:101DC0000317DB2E9900831603175708831203139A
:101DD0000C1AED2E83160317E62E990083160317AF
:101DE0005608831203130C1AF82E83160317F12ECC
:101DF0009900831603175508831203130C1A032F37
:101E000083160317FC2E99008316031759088312B3
:101E100003130C1A0E2F83160317072F990083162E
:101E200003175808831203130C1A192F831603176C
:101E3000122F990073080C1E1B2F990031080C1EDD
:101E40001F2F990001300C1E232F990032300C1ED9
:101E5000272F99000D300C1E2B2F99000A300C1ED5
:101E60002F2F9900A62F831603172108831203131F
:101E7000AA0083160317220883120313AB008316EC
:101E800003172318492F8312031388134C2F83162B
:101E9000031783120313881783160317A318562FEB
:101EA000831203138812592F831603178312031307
:101EB0008816831603172319632F8312031308133D
:101EC000662F83160317831203130817831603174D
:101ED000A31D702F831203130512732F831603178C
:101EE0008312031305162A300C1E742F99000D302F
:101EF0000C1E782F99000A300C1E7C2F9900A62FFB
:101F000000302D1A0130F10021300C1E852F990070
:101F100071080C1E892F99000D300C1E8D2F990011
:101F20000A300C1E912F990000302D1A0130013C0F
:101F3000031D9B2F2D12A62F8A11982F8A15A62FCD
:101F40000028A62F8A118A278A15A62FAE018C1287
:101F50008A110A122D2859308400831300080319AE
:101F6000BE2F0630F800F701F70BB42FF80BB32F94
:101F70007B30F700F70BBA2F800BB12F0034D70856
:101F8000031DC42F2D10C52F2D140034D708031D99
:101F9000CB2FAD10CC2FAD140034D708031DD22F9A
:101FA0002D11D32F2D150034D708031DD92FAD11B6
:101FB000DA2FAD1500345A3084008313000803195A
:101FC000E62FE42F00000000800BE22F0034DA300F
:101FD0005707840083170008F8000034D708031D52
:101FE000F32F0812F42F08160034D708031DFA2F18
:081FF0000813FB2F0817003451
:10200000AA01AB0183160317D201D301D401D50174
:10201000D601D701D801D901DA01DB01DC01DD01EC
:10202000DE01DF01E001E101E201E301E401E5019C
:1020300003130912F701F71D2828073083128101C5
:102040008130840083130008C0390F388000831664
:102050006400813084000008C03977048000831256
:1020600090010030F8009200003083169200831235
:10207000970197019D019D012F3083168500303017
:102080008600A730870000308800091489140915DC
:10209000103083128500860187018801890183162B
:1020A00081179F0183121F083839C1389F001030F3
:1020B000F8009200BB3083169200831291018316C0
:1020C0000108C0390138810083128101B5309000C8
:1020D0008F018E010530D9000A128A15AB270A1626
:1020E0008A11C70147080A124C200A16C70AF700CE
:1020F00077080C1E7928990008304702031D7228C2
:10210000A8018B1BA8178B130130F2001830F300C5
:102110000A12D2240A16A81B8B172E300C1E8E28EA
:102120009900A8018B1BA8178B133230F2001830CE
:10213000F3000A12D2240A16A81B8B170D30C80010
:1021400048080A124C200A16C80AF70077080C1E25
:10215000A728990031304802031DA028C70147086D
:102160000A1282200A16C70AF70077080C1EB62842
:10217000990009304702031DAF2820300C1EBE28ED
:10218000990040300C1EC228990020300C1EC62831
:102190009900C70147080A1290200A16C70AF700DB
:1021A00077080C1ED128990008304702031DCA2861
:1021B0000D300C1ED92899000A300C1EDD2899001C
:1021C000C70147080A129D200A16C70AF7007708B8
:1021D0000C1EE82899001E304702031DE1288B16CB
:1021E0008B1500302D190130013C031DFA28831690
:1021F0008C168312C0308B048A150A16492B570897
:10220000D8005808F700F70803190F2901307702A2
:1022100003199229023077020319152A6D2A083012
:10222000F8001F08C73978049F001330F700F70B38
:102230001729000000001F151F191C291E088316EE
:102240000317D3000030F800831203131F08C739A7
:1022500078049F001330F700F70B2C2900000000D2
:102260001F151F1931291E0883160317D2001030BD
:10227000F800831203131F08C73978049F00133036
:10228000F700F70B4129000000001F151F19462910
:102290001E0883160317D400831203130615023099
:1022A000D9009330DA000A128A15DB270A168A1140
:1022B000D90B51291F151F195B291E0883160317F7
:1022C0005402DC000830F800831203131F08C739DA
:1022D00078049F001330F700F70B6C290000000012
:1022E0001F151F1971291E08831603175302DB00DF
:1022F0000030F800831203131F08C73978049F00C9
:102300001330F700F70B8229000000001F151F197A
:1023100087291E08831603175202DA00831203135B
:1023200006116D2A2030F8001F08C73978049F0075
:102330001330F700F70B9A29000000001F151F1932
:102340009F291E0883160317D6002830F800831231
:1023500003131F08C73978049F001330F700F70BE9
:10236000AF29000000001F151F19B4291E0883168D
:102370000317D7001830F800831203131F08C7395A
:1023800078049F001330F700F70BC4290000000009
:102390001F151F19C9291E0883160317D50083129C
:1023A000031386150230D9009330DA000A128A1519
:1023B000DB270A168A11D90BD4291F151F19DE290C
:1023C0001E08831603175502DD002030F800831223
:1023D00003131F08C73978049F001330F700F70B69
:1023E000EF29000000001F151F19F4291E0883168D
:1023F00003175602DE002830F800831203131F086B
:10240000C73978049F001330F700F70B052A000046
:1024100000001F151F190A2A1E08831603175702EA
:10242000DF008312031386116D2A3030F8001F0875
:10243000C73978049F001330F700F70B1D2A0000FE
:1024400000001F151F19222A1E0883160317D80023
:102450003830F800831203131F08C73978049F002F
:102460001330F700F70B322A000000001F151F1968
:10247000372A1E0883160317D90083120313861404
:102480000230D9009330DA000A128A15DB270A16C7
:102490008A11D90B422A1F151F194C2A1E088316B0
:1024A00003175902E1003030F800831203131F08AC
:1024B000C73978049F001330F700F70B5D2A00003E
:1024C00000001F151F19622A1E08831603175902E0
:1024D000E0008312031386106D2A0530D9000A121A
:1024E0008A15AB270A168A110034F701F8015E0835
:1024F00003105F18F707F70CF80CDF18F707F70C55
:10250000F80C5F19F707F70CF80CDF19F707F70C51
:10251000F80C5F1AF707F70CF80CDF1AF707F70C3F
:10252000F80C5F1BF707F70CF80CDF1BF707F70C2D
:10253000F80C0034D70803199F2A0512A02A0516A3
:1025400000345708AA005808AB000034C701C8017E
:1025500048080A12F0200A16C80AF70077080C1E6D
:10256000AF2A99001B304802031DA82A0030071823
:102570000130F700770DC800C80DC80DF830C80548
:10258000003087180130F700F70DF70DFC30F70524
:1025900077084807C900003007190130F700031019
:1025A000F70D77084907CA000030871A01304A073B
:1025B000C7004708F700013077020319E82A023004
:1025C00077020319B22C043077020319222D5C2DF7
:1025D000D7010A128A15BF270A168A11D7010A12D3
:1025E0008A15C6270A168A11D7010A128A15CD271D
:1025F0000A168A11D7010A128A15D4270A168A11D7
:10260000D701FF200130D700FF200230D7000A1287
:102610008A15E7270A168A117808C8000430D700FF
:102620000A128A15E7270A168A117808C9000530A8
:10263000D7000A128A15E7270A168A117808CA00F5
:102640000130D7000A128A15E7270A168A1178087E
:10265000CB00D7010A128A15E7270A168A117808D3
:10266000CC004808143C031C372B0030382B0130B9
:10267000D7004C08143C031C3F2B0030402B01308A
:102680005705D8004B08143C031C482B0030492B3D
:1026900001305805003A0319542B0130D7000A12B3
:1026A0008A15EE270A168A1151084802003A031DBE
:1026B0005B2B00305C2B0130D80051084802D90058
:1026C0005908053C031C662B0030672B0130580568
:1026D000DA004808103C031C6F2B0030702B0130CF
:1026E0005A05003A0319762B5614772B56104D08CD
:1026F0004902003A031D7E2B00307F2B0130D800A9
:102700004D084902D9005908053C031C892B0030AB
:102710008A2B01305805DA004908103C031C922B23
:102720000030932B01305A05003A0319992BD61427
:102730009A2BD6104E084A02003A031DA12B0030F6
:10274000A22B0130D8004E084A02D9005908053C96
:10275000031CAC2B0030AD2B01305805DA004A08C1
:10276000103C031CB52B0030B62B01305A05003A43
:102770000319BC2B5615BD2B561150084C02003ABC
:10278000031DC42B0030C52B0130D80050084C026B
:10279000D9005908053C031CCF2B0030D02B013049
:1027A0005805DA004C08103C031CD82B0030D92BFC
:1027B00001305A05003A0319DF2BD615E02BD6114C
:1027C0004F084B02003A031DE72B0030E82B013085
:1027D000D8004F084B02D9005908053C031CF22BC6
:1027E0000030F32B01305805DA004B08103C031C75
:1027F000FB2B0030FC2B01305A05003A0319022C48
:102800005616032C5612003056180130D7000530EA
:10281000DE005708DF0075227808053CD80000303C
:10282000D6190130D9000A30DE005908DF007522C0
:1028300078085802DA000030D6180130F70003108B
:10284000F70D77085A07DB00003056190130F70002
:10285000F70DF70DFC30F70577085B02DC00003060
:10286000561A0130DD000630DE005D08DF007522FB
:1028700078085C07D200003056180130D7000530C8
:10288000DE005708DF0075227808053CD8000030CC
:10289000D6190130D9000630DE005908DF00752254
:1028A00078085807DA000030D6180130F700F70D25
:1028B000F70DFC30F70577085A02DB000030561997
:1028C0000130F7000310F70D77085B07DC000030DC
:1028D000561A0130DD000A30DE005D08DF00752287
:1028E00078085C02D3005308520203198A2C53085B
:1028F000803AF7005208803A77020318872C01309B
:10290000D7000A128A15F5270A168A118A2C013077
:10291000D7009A225208D7005308D800A1222830A5
:10292000D7005708D9000A128A15AB270A168A1150
:10293000D7010A128A15F5270A168A11D7019A2299
:10294000D7010A128A15EE270A168A114B08CF0002
:102950004C08D0004908CD004A08CE004808D100F4
:10296000002B5C2DC801C901D7010A128A15BF27A7
:102970000A168A11D7010A128A15C6270A168A1161
:10298000D7010A128A15CD270A168A11D7010A1211
:102990008A15D4270A168A110230D700FF20063084
:1029A000D7000A128A15E7270A168A110310780C35
:1029B000CB000730D7000A128A15E7270A168A11BA
:1029C0000310780C4B07C9000230D700FF200630F7
:1029D000D7000A128A15E7270A168A110310780C05
:1029E000CB000730D7000A128A15E7270A168A118A
:1029F0000310780C4B07C80002304907480203193E
:102A0000122D031C122D0330D7000730D800A1224D
:102A1000D7010A128A15F5270A168A110130D70044
:102A20009A22202D0730D7000330D800A122013090
:102A3000D7000A128A15F5270A168A11D7019A2299
:102A4000E42C5C2DD7010A128A15BF270A168A11B9
:102A5000D7010A128A15C6270A168A11D7010A1247
:102A60008A15CD270A168A11D7010A128A15D4278A
:102A70000A168A110A30D7000530D800A122043086
:102A8000C800E130D9000A128A15AB270A168A114C
:102A9000C80B412DFB30D700F630D800A1220430FE
:102AA000C800E130D9000A128A15AB270A168A112C
:102AB000C80B512D3A2D5C2D8A150A167C2BC708A0
:102AC000031D642D8812652D88168A150A16BF2BE2
:0E2AD000D2304707840083170008F800003456
:0E360200840183131F308305063083169F005A
:103610000A30990026309800903083129800FF30CD
:10362000A900A915290883168700831229162908DD
:10363000831687003130930028308312940083165C
:10364000941714138312AA01AB01AC012D14AD140D
:103650002D15AD152D12AD12AE012D13AD132F107A
:10366000AF102F11AF112F12AF122F13AF13301055
:10367000B0103011B011B101B201B301B401B50104
:10368000B601B701B801B901BA018F018E018A11E3
:1036900000288A15003087180130003A031D7A2B64
:1036A000003007190130003A031D7A2B0030871AC9
:1036B0000130003A031D7A2B003007180130003A20
:1036C000031D662BFF30C200C100792BFF300317AA
:1036D0008D001A308F0083168C170C140000000028
:1036E00083120E08FA000C080313C10018307A0781
:1036F000C2007D2B8A11A62A8A1583168C1283128A
:10370000410F852B420F852B7A2E0030B01A0130E5
:10371000003A031DA42B0F08FA000E08F7000F084B
:103720007A02031D8B2B7708C8007A08C900490864
:103730007C3C0318A42BFF3A031DA22B4808003C35
:103740000318A42BB016BC2B0030B01A0130013C7A
:10375000031DBC2B0F08FA000E08F7000F087A02B1
:10376000031DAA2B7708C8007A08C90049087C3CC9
:10377000031CBC2BBE0AB012C7018A115F2D8A152B
:103780004208C0004108BF00C401C5014610C61070
:1037900046124611C6113F0803178D000313400857
:1037A00003178F0083168C170C140000000083127F
:1037B0000E08FA000313C80103170C080313C7000F
:1037C000FC3E0318502C043E882EBF0A0319C00A81
:1037D0003F0803178D000313400803178F0083165B
:1037E0008C170C140000000083120313C801031788
:1037F0000C080313C700C400502CBF0A0319C00AE9
:103800003F0803178D000313400803178F0083162A
:103810008C170C140000000083120313C801031757
:103820000C080313C700C500502CBF0A0319C00AB7
:103830003F0803178D000313400803178F008316FA
:103840008C170C140000000083120313C801031727
:103850000C080313C700C30043184614C318C6144A
:1038600043194615C319C615502CBF0A0319C00ABF
:103870003F0803178D000313400803178F008316BA
:103880008C170C140000000083120313C8010317E7
:103890000C080313C700C300430B4F2C4616502CD3
:1038A000BF0A0319C00A3F0803178D00031340081D
:1038B00003178F0083168C170C140000000083126E
:1038C0000E08FA000313C80103170C080313C700FE
:1038D000FF3C031DCB2B4408D7004508D8008A11B4
:1038E000A1228A150030461A0130C700D7000A12FB
:1038F000EE270A16003046180130C700D7000A121A
:10390000F5270A160030C6180130C700D7008A1103
:103910009A228A1546198E2C06138F2C0617C61963
:10392000932C8613942C8617BF0A0319C00A3F08EC
:1039300003178D000313400803178F0083168C179D
:103940000C140000000083120E08FA000313C801D3
:1039500003170C080313C700FF3C03197A2E301617
:103960003F0803178D000313400803178F008316C9
:103970008C170C140000000083120313C8010317F6
:103980000C080313C700BB003B0FC72C3A2E3B08A3
:10399000F700043077020319562D0530770203191A
:1039A000562D063077020319562D0730770203197A
:1039B000562D083077020319562D09307702031966
:1039C000562D0A3077020319562D0B307702031952
:1039D000562D0C30770203197C2D0D307702031918
:1039E0007C2D0E30770203197C2D0F3077020319DE
:1039F0007C2D1030770203197C2D113077020319CA
:103A00007C2D1230770203197C2D133077020319B5
:103A10007C2D143077020319A22D1530770203197B
:103A2000BE2D163077020319C22D84307702031998
:103A3000E22D853077020319E22D863077020319D3
:103A4000E22D873077020319E22D883077020319BF
:103A5000E22D893077020319E22D8A3077020319AB
:103A6000E22D8B3077020319E22D8C307702031997
:103A70000C2E8D30770203190C2E8E30770203192D
:103A80000C2E8F30770203190C2E90307702031919
:103A90000C2E9130770203190C2E92307702031905
:103AA0000C2E9330770203190C2E362EBF0A031901
:103AB000C00A04303B02BD003D08D7000A12E727C8
:103AC0000A167808C7003F0803178D000313400843
:103AD00003178F0083168C170C140000000083124C
:103AE0000E08FA000313C90103170C080313C800DA
:103AF000470203183012362EBF0A0319C00A0C30D1
:103B00003B02BD003D08C7008A1168258A15780868
:103B1000C7003F0803178D000313400803178F00E9
:103B200083168C170C140000000083120E08FA0094
:103B30000313C90103170C080313C8004702031835
:103B40003012362EBF0A0319C00A3F0803178D0032
:103B50000313400803178F0083168C170C14000002
:103B6000000083120E08FA000313C80103170C08A3
:103B70000313C7003E02031C3012362EBF0A03197E
:103B8000C00A362EBF0A0319C00A003006180130D9
:103B9000C7003F0803178D000313400803178F0069
:103BA00083168C170C140000000083120E08FA0014
:103BB0000313C90103170C080313C8004702031DB0
:103BC0003012362EBF0A0319C00A3B087F39BD00E8
:103BD0000430BD023D08D7000A12E7270A1678080C
:103BE000C7003F0803178D000313400803178F0019
:103BF00083168C170C140000000083120E08FA00C4
:103C00000313C90103170C080313C8004702031963
:103C10000A2E031C3012362EBF0A0319C00A3B08B5
:103C20007F39BD000C30BD023D08C7008A116825F0
:103C30008A157808C7003F0803178D000313400852
:103C400003178F0083168C170C14000000008312DA
:103C50000E08FA000313C90103170C080313C80068
:103C600047020319342E031C3012362EBF0A0319E3
:103C7000C00AB02CBF0A0319C00A301E752E3F08B7
:103C800003178D000313400803178F0083168C174A
:103C90000C140000000083120313C80103170C0862
:103CA0000313C70001303F07C9004008CA000318CA
:103CB000CA0A490803178D0003134A0803178F0027
:103CC00083168C170C140000000083120313CB0121
:103CD00003170C080313CA004A08C100183047072D
:103CE000C2008F018E01BE01B0120230BF0703185F
:103CF000C00A972C83168C1602308312C700F73047
:103D0000DA000A12DB270A16C70B7F2E7D2B630011
:103D10000A108A140A158207E52BFD2B152C352C69
:02400E003A3D39
:00000001FF
;PIC16F877
