:1000000010308A00CB2A0000FF00030E8301A100FC
:100010000A08A0008A010408A2007708A300780853
:10002000A4007908A5007A08A6007B08A70083131E
:1000300083128C308400801E1F288C1A3C288C3040
:100040008400001C25280C183F288B1E29280B191A
:100050004228220884002308F7002408F800250815
:10006000F9002608FA002708FB0020088A00210E64
:100070008300FF0E7F0E09008A150A12EC2B8A11ED
:100080000A12A62A8A110A12EE2A0A108A100A11E6
:100090008207503472346F3464347534633474348A
:1000A0005F346934643420343D342034253478346A
:1000B0000A340D3400340A108A100A1182075034B1
:1000C00072346F3464347534633474345F3476342A
:1000D00065347234733469346F346E3420343D3493
:1000E0002034253478340A340D3400340A108A1050
:1000F0000A1182074D346F34743469346F346E34AE
:1001000020343D342034253478340A340D3400341E
:100110000A108A100A118207443465346C3474342E
:1001200061345F34783420343D34203425347834DD
:100130000A340D3400340A108A100A11820744343C
:1001400065346C34743461345F34793420343D3434
:100150002034253478340A340D3400340A108A10DF
:100160000A118207533455345234463441344334EF
:1001700045345F345134553441344C34493454346B
:10018000593420343D342034253478340A340D3445
:1001900000340A108A100A1182074134563445345B
:1001A00052344134473445345F3450344934583440
:1001B00045344C3420343D342034253478340A34EA
:1001C0000D3400340A108A100A1182074D3441346C
:1001D000583449344D3455344D345F3450344934F7
:1001E000583445344C3420343D342034253478346C
:1001F0000A340D3400340A148A100A11023E03181E
:100200008A0A82004F344E344634493447345F34CE
:10021000423449345434533420343D34203425346A
:1002200078340A340D3400340A148A100A11820713
:1002300053344834553454345434453452345F3490
:100240005534503450344534523420343D34203405
:10025000253478340A340D3400340A148A100A1113
:10026000820753344834553454345434453452346A
:100270005F344C344F3457344534523420343D3499
:100280002034253478340A340D3400340A148A10AA
:100290000A1182074634523441344D3445345F34B8
:1002A00050344534523449344F3444345F34553437
:1002B000503450344534523420343D3420342534C5
:1002C00078340A340D3400340A148A100A11820773
:1002D0004634523441344D3445345F34503445341F
:1002E000523449344F3444345F344C344F345734EF
:1002F0004534523420343D342034253478340A34A3
:100300000D3400340A148A100A11820753344F3412
:1003100044340A340D3400340A148A100A11820756
:1003200050346934783465346C3420343D342034AE
:10033000253478342C342034253478340A340D3480
:1003400000340A148A100A11820745344F344434A9
:100350000A340D3400340A148A100A118207413419
:1003600044344E3453343234303435343134203420
:10037000723465347334653474340A340D340034A3
:100380000A148A100A11820750346F3473342034EF
:1003900058342C34593420343A34203425346C34D5
:1003A0006434203425346C346434203440342034B4
:1003B00025346C3475340A340D3400340A148A1030
:1003C0000A11820758342C34593420343A342034FA
:1003D000253464342C34253464340A340D34003428
:1003E0000A148A100A11F73E03188A0A8200483458
:1003F00065346D3469344F345334203456342534E5
:1004000064342E34253464344D3420342C34203478
:1004100000340A108A140A118207313439342D3419
:100420004A3461346E342D343034393400340A1097
:100430008A140A118207313435343A34323437346D
:100440003A343434313400340A108A140A118207E1
:1004500055346E346B346E346F3477346E342034EC
:1004600043346F346D346D3461346E34643420340D
:100470003F3421340D340A3400340A108A140A112E
:10048000820762342C34483465346D3469344F3417
:1004900053345F3476345F34253464342E34253459
:1004A00064340D340A34003483165E08E000DF0142
:1004B0005F08073C031C722A8312871103108316FE
:1004C000E00D0318672A83120712692A8316831224
:1004D000071687152930F700F70B6C2A00008316E2
:1004E000DF0A582A83120034A630F700F70B762A69
:1004F00000008316DD015D08073C031C922A83126D
:1005000087112930F700F70B832A0000071A8A2A7F
:1005100003108B2A03148316DE0D831287158316AE
:10052000DD0A7B2AFA015E08F8007A08F9008312D6
:10053000003483165B08DE0083125422742278088C
:100540008316DC005C08F800831200340B308F0047
:10055000DB308E00FC0A0319FD0A02308316DB0033
:10056000831299227808AB00AB1FEA2A0330831666
:10057000DB00831299227808FE0004308316DB002A
:100580008312992278088316A400A53039078400C5
:1005900083137E088000AF3039078400831324085A
:1005A0008000B90A39080A3C031DD72AB901FA01AB
:1005B0007E08FE1BFA03A0070318A10A7A08A10708
:1005C000FA012408A41BFA03A2070318A30A7A0855
:1005D000A30783120C108A110A122928E00A600866
:1005E000053C031DFC2AE0010130DC070318DD0A8D
:1005F0000319DE0A0319DF0A003040180130003AFF
:10060000031D0B2B0030C0180130013C031D0B2BC8
:10061000C101C201C010C11B1D2B41080F3C430783
:10062000F700F71B1A2B77080E3C03181A2B08103B
:1006300088101C2B081488102D2B4108003C0F3CFF
:100640004307F700F71B2B2B77080E3C03182B2BC7
:10065000081088102D2B08108814C21B3F2B42084D
:100660000F3C4307F700F71B3C2B77080E3C0318A1
:100670003C2B081188113E2B081588114F2B42087E
:10068000003C0F3C4307F700F71B4D2B77080E3C4F
:1006900003184D2B081188114F2B08118815C30A18
:1006A00043080F3C0318552BC3017508F7000130B0
:1006B00077020319902B033077020319BA2B0A3003
:1006C00077020319DA2B0C3077020319152C0F303F
:1006D00077020319472C1430770203194C2C16307B
:1006E00077020319872C193077020319BA2C2330AB
:1006F00077020319C72C643077020319CC2C7830A9
:1007000077020319CD2C8C3077020319CE2CA03040
:1007100077020319CF2CC83077020319D02CD82CBC
:10072000003040190130013C031DB92B3030F80076
:100730001F08C73978049F001330F700F70B9E2B72
:10074000000000001F151F19A32B1E08E7003830FA
:10075000F8001F08C73978049F001330F700F70B23
:10076000AF2B000000001F151F19B42B1E08E80056
:100770008614D82C003040190130013C031DD92BC0
:100780001F151F19C12B1E086802F0003030F80039
:100790001F08C73978049F001330F700F70BCE2BE2
:1007A000000000001F151F19D32B1E086802EF0060
:1007B0008610D82C003040190130013C031D142C48
:1007C0000830F8001F08C73978049F001330F7007D
:1007D000F70BE82B000000001F151F19ED2B1E085A
:1007E000E2000030F8001F08C73978049F0013307A
:1007F000F700F70BF92B000000001F151F19FE2B47
:100800001E08E1001030F8001F08C73978049F0067
:100810001330F700F70B0A2C000000001F151F19FA
:100820000F2C1E08E3000615D82C003040190130AB
:10083000013C031D462C1F151F191C2C1E086302AA
:10084000EB000830F8001F08C73978049F00133008
:10085000F700F70B292C000000001F151F192E2C84
:100860001E086202EA000030F8001F08C739780449
:100870009F001330F700F70B3B2C000000001F1502
:100880001F19402C1E086102E9000611D82CF60839
:10089000031D4B2C8817D82C003040190130013C27
:1008A000031D862C2030F8001F08C73978049F00EC
:1008B0001330F700F70B5A2C000000001F151F190A
:1008C0005F2C1E08E5002830F8001F08C73978049F
:1008D0009F001330F700F70B6B2C000000001F1572
:1008E0001F19702C1E08E6001830F8001F08C739C1
:1008F00078049F001330F700F70B7C2C00000000F9
:100900001F151F19812C1E08E4008615D82C0030F5
:1009100040190130013C031DB92C1F151F198E2CE5
:100920001E086402EC002030F8001F08C739780464
:100930009F001330F700F70B9B2C000000001F15E1
:100940001F19A02C1E086502ED002830F8001F08B2
:10095000C73978049F001330F700F70BAD2C000067
:1009600000001F151F19B22C1E086602EE0086112A
:10097000C016D82CF101071CF10AF201871CF20AFB
:10098000F301071DF30AF401871EF40AD82CF608B8
:10099000031DCB2C8813D82CD82CD82CD82CD82C91
:1009A000F501F60A76080A3C0318D72CF601D82C74
:1009B000F50A0B118A110A12292883166108F80119
:1009C00060020318E62C6008F700F22CF7010830EB
:1009D000E200E00DF70D610877020318F700F80D4B
:1009E000E20BE92C8312003483165E08F700DE1B4D
:1009F000FD2C5F1D0C2D2030022DF709F70A77081A
:100A0000DE002D30F80083120C1A082D8316032DFA
:100A1000990083165F1DDF155E08E0006430E10079
:100A20008312DD2477088316DE0078083030031D3A
:100A3000202D5F182B2DDF192B2D5F1A2030222D32
:100A4000DF115F12F807780883120C1A292D83161C
:100A5000242D990083165E08E0000A30E10083121D
:100A6000DD2477088316DE0078083030031D3C2D26
:100A7000DF19452D5F1A2030F807780883120C1A09
:100A8000432D83163E2D990083163030DE075E0815
:100A900083120C1A4D2D8316482D990000347808C6
:100AA00083165608E0006430E1008312DD247708E5
:100AB0008316D60078083030031D652D5718702D29
:100AC000D719702D571A2030672DD7115712F807F4
:100AD000780883120C1A6E2D8316692D99008316DF
:100AE0005608E0000A30E1008312DD2477088316FF
:100AF000D60078083030031D812DD7198A2D571A5A
:100B00002030F807780883120C1A882D8316832D5D
:100B1000990083163030D607560883120C1A922D8E
:100B200083168D2D990000348316DD1BAC2D0F30FC
:100B3000F7005C0EF7050A3077020318A22D30305B
:100B4000F707A42D5D08F707770883120C1AAA2D62
:100B50008316A52D990083160F30DC050A305C0240
:100B60000318B42D3030B62DDD135D08DC075C08AA
:100B700083120C1ABD2D8316B82D990000348316EC
:100B80005D08DF00DE015E08073C031CDD2D8312DB
:100B9000871103108316DF0D0318D22D831207125D
:100BA000D42D83168312071687152930F700F70B0B
:100BB000D72D00008316DE0AC32D8312003483165E
:100BC0005B088038DD00DE008312542283165C0847
:100BD000DD008312BF2500348316E4010408E3001E
:100BE0006410831B6414DD1F032E2D3083120C1A36
:100BF000FB2D8316F62D990084038316DC09DD098D
:100C0000DC0A0319DD0A5D0EF038DF00DF07E23E83
:100C1000E000323EE2005D080F39E007E007E2073E
:100C2000E93EE100E107E1075C0E0F39E107E20769
:100C3000E10DE20DE209E20D5C080F39E207DF0D7C
:100C40000730DE000A30E207E103031C232EE10730
:100C5000E003031C272EE007DF03031C2B2EDF0716
:100C6000DE03031C2F2EDE30840083130730630560
:100C70008407E23004020319552E0008F700031D13
:100C8000472E631A532EE319492E20304A2E08307E
:100C9000E3003030F707770883120C1A512E8316C1
:100CA0004C2E99008316840A392E0008F700303044
:100CB000F707770883120C1A5F2E83165A2E9900B5
:100CC00000348316E4010408E3006410831B6414F9
:100CD0005D0EF038DF00DF07E23EE000323EE2006A
:100CE0005D080F39E007E007E207E93EE100E107B0
:100CF000E1075C0E0F39E107E207E10DE20DE209C1
:100D0000E20D5C080F39E207DF0D0730DE000A3024
:100D1000E207E103031C882EE107E003031C8C2E8D
:100D2000E007DF03031C902EDF07DE03031C942E75
:100D3000DE3084008313073063058407E230040249
:100D40000319BA2E0008F700031DAC2E631AB82E43
:100D5000E319AE2E2030AF2E0830E3003030F70715
:100D6000770883120C1AB62E8316B12E99008316BB
:100D7000840A9E2E0008F7003030F70777088312A8
:100D80000C1AC42E8316BF2E990000348316D60188
:100D90005608831224228316D60AF70083120C1AEF
:100DA000D32E8316CE2E9900143083165602031DBF
:100DB000C82E83128A150A12CA2FBF3084008313EB
:100DC00000080319F02E0630F800F701F70BE62EA5
:100DD000F80BE52E7B30F700F70BEC2E800BE32EA3
:100DE0000034C101C201E101E201E301E401E501D6
:100DF000E601E701E801E901EA01EB01EC01ED019F
:100E0000EE01EF01F001F101F201F301F4018316AB
:100E10000912F701F71D172F073083128101813066
:100E2000840083130008C0390F38800083166400E3
:100E3000813084000008C03977048000831290015B
:100E40000030F80092000030831692008312970160
:100E500097019D019D012F3083168500303086005B
:100E60000030880009148914091510308312850098
:100E7000860188018901831681179F0183121F084B
:100E80003839C1389F0083160108C0390138810004
:100E90008312810105308316BF008312DD2683167D
:100EA000BC013C088312F0218316BC0AF7008312B0
:100EB0000C1A5C2F8316572F9900083083163C02BA
:100EC000031D512F8312A8018B1BA8178B13013010
:100ED0008316DE001830DF008312F424A81B8B1762
:100EE0002E300C1E712F9900A8018B1BA8178B1395
:100EF00032308316DE001830DF008312F424A81B82
:100F00008B170D308316BD003D088312F021831628
:100F1000BD0AF70083120C1A8F2F83168A2F9900AF
:100F2000113083163D02031D842FBC013C0883123F
:100F300009228316BC0AF70083120C1AA12F83160C
:100F40009C2F9900093083163C02031D962F2030F8
:100F500083120C1AAD2F8316A82F990040300C1E57
:100F6000AF2F990020300C1EB32F99008316BC01BF
:100F70003C08831217228316BC0AF70083120C1A4E
:100F8000C32F8316BE2F9900083083163C02031D21
:100F9000B82F0D3083120C1ACF2F8316CA2F990049
:100FA0000A300C1ED12F99008B1683160C148C1648
:100FB000C03083128B048A110A16F22A8316BD01EF
:100FC0003C083D020318EF2F0430BE00FA30BF008A
:100FD0008312DD268316BE0BE62FBD0AE02F831297
:100FE000003483163E088312C10083163F08831223
:040FF000C200003407
:1010000083165608F70041307702831203193128FE
:10101000423077020319612843307702031992287E
:10102000443077020319C328453077020319542945
:10103000473077020319E529483077020319462A19
:10104000493077020319A72A523077020319322B4D
:101050004A3077020319522B4B3077020319A02B29
:10106000EA2B8316DB018A11831299228A157808EC
:10107000A9008316DB015B088A11831245208A15BB
:101080008316DB0AF70083120C1A482883164328BC
:1010900099000D3083165B02031D3B28831229083B
:1010A0008316DC005730DD008A11831294258A15DF
:1010B0000A300C1E592899000D300C1E5D2899002D
:1010C000EB2B01308316DB008A11831299228A15DB
:1010D0007808AA008316DB015B088A1183125B2063
:1010E0008A158316DB0AF70083120C1A79288316F7
:1010F00074289900123083165B02031D6C2883123A
:101100002A088316DC005730DD008A1183129425EB
:101110008A150A300C1E8A2899000D300C1E8E2864
:101120009900EB2B02308316DB008A11831299227F
:101130008A157808AB008316DB015B088A118312DD
:1011400076208A158316DB0AF70083120C1AAA2868
:101150008316A5289900093083165B02031D9D287C
:1011600083122B088316DC005730DD008A118312AE
:1011700094258A150A300C1EBB2899000D300C1ED0
:10118000BF289900EB2B03308316DB008A118312F2
:1011900099228A157808AC008316DB015B088A1156
:1011A000831288208A158316DB0AF70083120C1A33
:1011B000DB288316D62899000A3083165B02031DAC
:1011C000CE2883122C088316DC005730DD008A11EC
:1011D000831294258A150A300C1EEC2899000D30D4
:1011E0000C1EF028990004308316DB008A1183124C
:1011F00099228A157808AD008316DB015B088A11F5
:1012000083129B208A158316DB0AF70083120C1ABF
:101210000B298316062999000A3083165B02031DE9
:10122000FE2883122D088316DC005730DD008A115A
:10123000831294258A150A300C1E1C2999000D3042
:101240000C1E2029990005308316DB008A118312B9
:1012500099228A157808AE008316DB015B088A1193
:101260008312AE208A158316DB0AF70083120C1A4C
:101270003B29831636299900123083165B02031D21
:101280002E2983122E088316DC005730DD008A11C8
:10129000831294258A150A300C1E4C2999000D30B2
:1012A0000C1E50299900EB2B06308316DB008A11A7
:1012B000831299228A157808AF008316DB015B0838
:1012C0008A118312C9208A158316DB0AF70083125C
:1012D0000C1A6C29831667299900103083165B025B
:1012E000031D5F2983122F088316DC005730DD00B1
:1012F0008A11831294258A150A300C1E7D299900C3
:101300000D300C1E8129990007308316DB008A11ED
:10131000831299228A157808B0008316DB015B08D6
:101320008A118312E2208A158316DB0AF7008312E2
:101330000C1A9C29831697299900103083165B029A
:10134000031D8F29831230088316DC005730DD001F
:101350008A11831294258A150A300C1EAD29990032
:101360000D300C1EB12999000A308316DB008A115A
:10137000831299228A157808B3008316DB015B0873
:101380008A118312FB208A158316DB0AF700831269
:101390000C1ACC298316C72999000D3083165B02DD
:1013A000031DBF29831233088316DC005730DD008C
:1013B0008A11831294258A150A300C1EDD299900A2
:1013C0000D300C1EE1299900EB2B0F308316DB004A
:1013D0008A11831299228A157808B8008316DB01D6
:1013E0005B088A11831214218A158316DB0AF70021
:1013F00083120C1AFD298316F829990010308316E0
:101400005B02031DF029831238088316DC00573075
:10141000DD008A11831294258A150A300C1E0E2ACB
:1014200099000D300C1E122A99000E308316DB0035
:101430008A11831299228A157808B7008316DB0176
:101440005B088A1183122D218A158316DB0AF700A7
:1014500083120C1A2D2A8316282A9900103083161D
:101460005B02031D202A831237088316DC005730E5
:10147000DD008A11831294258A150A300C1E3E2A3B
:1014800099000D300C1E422A9900EB2B1130831667
:10149000DB008A11831299228A157808BA00831614
:1014A000DB015B088A11831246218A158316DB0A49
:1014B000F70083120C1A5E2A8316592A99001530F8
:1014C00083165B02031D512A83123A088316DC003F
:1014D0005730DD008A11831294258A150A300C1EBC
:1014E0006F2A99000D300C1E732A99001030831654
:1014F000DB008A11831299228A157808B9008316B5
:10150000DB015B088A11831264218A158316DB0ACA
:10151000F70083120C1A8E2A8316892A9900153037
:1015200083165B02031D812A831239088316DC00AF
:101530005730DD008A11831294258A150A300C1E5B
:101540009F2A99000D300C1EA32A9900EB2B0A301C
:101550008316DB000830DC008A118312DF258A1530
:101560008316DB015B088A11831282218A15831698
:10157000DB0AF70083120C1ABF2A8316BA2A9900D5
:10158000053083165B02031DB22AD701570FC92A03
:10159000152B0C30DB008A11831299228A157808EA
:1015A0008316D900D91BC92A0D30DB008A1183129A
:1015B00099228A1578088316DA00DB015B088A1104
:1015C00083128C218A158316DB0AF70083120C1A0A
:1015D000EB2A8316E62A9900083083165B02031D66
:1015E000DE2A5A08DC005730DD008A118312942568
:1015F0008A152C300C1EFA2A990020300C1EFE2A67
:10160000990083165908DC005730DD008A118312D7
:1016100094258A150A300C1E0B2B99000D300C1ED8
:101620000F2B99008316D70AC62ADB015B088A11A3
:101630008312A1218A158316DB0AF70083120C1A84
:10164000232B83161E2B9900053083165B02031D86
:10165000162B0A30DB004030DC008A118312DF25B4
:101660008A15EB2B0A308316DB008030DC008A11F0
:101670008312DF258A158316DB015B088A1183122A
:10168000AB218A158316DB0AF70083120C1A4A2B4A
:101690008316452B9900103083165B02031D3D2BEA
:1016A0008312EB2B8316DB015B088A118312C021A6
:1016B0008A158316DB0AF70083120C1A612B831636
:1016C0005C2B99000A3083165B02031D542B1030EB
:1016D00084002108DD002008DC008A118312EC253B
:1016E0008A1520300C1E722B99001030840083164E
:1016F0002308DD002208DC008A118312EC258A15FC
:1017000020300C1E812B990040300C1E852B990037
:1017100020300C1E892B9900103084007D08831620
:10172000DD007C08DC008A11831261268A150A30EC
:101730000C1E982B99000D300C1E9C2B9900EB2B46
:101740008316D7015708093C031CE82B0C10A53061
:101750005707840083130008DB00AF30570784006D
:1017600083130008DC00DD015D088A118312DE218D
:101770008A158316DD0AF70083120C1AC12B831613
:10178000BC2B9900063083165D02031DB42B5B0849
:10179000DE001830DF008A118312F4248A152C3001
:1017A0000C1ED02B990083165C08DE001830DF0079
:1017B0008A118312F4248A150A300C1EDD2B99003D
:1017C0000D300C1EE12B990083160C14D70AA22BA6
:1017D0008312EB2BEB2B00348316D201D30183123F
:1017E0008C1E022C44305807840083138C1EF62B69
:1017F0001A0880005808123C031CFF2BD80A8316D5
:10180000EF2B831201305802443E840083130008FA
:101810000D3C031DCD2F4408F70042307702031919
:10182000622C443077020319952C45307702031956
:10183000C62C483077020319ED2C49307702031982
:10184000022D4C3077020319432D4D3077020319D6
:10185000702D4E3077020319072E4F30770203198F
:10186000742E503077020319E12E56307702031997
:10187000782F5A30770203197E2F2130770203190F
:101880008D2F303077020319B12F333077020319CF
:10189000B32F343077020319B62F3530770203198E
:1018A000B92F363077020319BC2F3730770203196E
:1018B000BF2F383077020319C22F3930770203194E
:1018C000C52FC82F8316D60156088A1183123D22D0
:1018D0008A158316D60AF70083120C1A712C831608
:1018E0006C2C99000B3083165602031D642C0130BA
:1018F000DE001830DF008A118312F4248A152E309E
:101900000C1E802C990032308316DE001830DF0068
:101910008A118312F4248A150D300C1E8D2C990027
:101920000A300C1E912C9900CC2F46082D3C031D2B
:10193000AA2C30304702003CC10049082D3C031D51
:10194000A62C30304A02003CC200A92C303049029B
:10195000C200B92C30304602C10048082D3C031D9E
:10196000B62C30304902003CC200B92C303048025D
:10197000C20064300C1EBA2C99000D300C1EBE2C17
:1019800099000A300C1EC22C9900CC2F65300C1E19
:10199000C72C99002C300C1ECB2C990041088316C3
:1019A000DE000130DF008A118312F4248A152C3006
:1019B0000C1ED82C990042088316DE000130DF008F
:1019C0008A118312F4248A150D300C1EE52C99001F
:1019D0000A300C1EE92C9900CC2F30304602003A18
:1019E000031DF42C0812F52C081668300C1EF62C7A
:1019F00099000D300C1EFA2C99000A300C1EFE2C9A
:101A00009900CC2F69300C1E032D99002C300C1E30
:101A1000072D990071088316DE001830DF008A1147
:101A20008312F4248A152C300C1E142D9900720890
:101A30008316DE001830DF008A118312F4248A1521
:101A40002C300C1E212D990073088316DE001830EF
:101A5000DF008A118312F4248A152C300C1E2E2DDF
:101A6000990074088316DE001830DF008A11831293
:101A7000F4248A150D300C1E3B2D99000A300C1EE3
:101A80003F2D9900CC2F30304602003A031D4A2DDD
:101A900088134B2D881730304802003A031D522D11
:101AA0008812532D881630304A02003A031D5A2DF1
:101AB00008135B2D081730304C02003A0319622DD1
:101AC0000512632D05166C300C1E642D99000D3027
:101AD0000C1E682D99000A300C1E6C2D9900CC2F1D
:101AE0004608F7003030770203197F2D3130770236
:101AF0000319B02D323077020319E12D062E6D3017
:101B00000C1E802D99002C300C1E842D990063082A
:101B10008316D600D7018A1183124F258A152C30DF
:101B20000C1E902D990061088316D600D7018A11EA
:101B300083124F258A152C300C1E9C2D99006208AB
:101B40008316D600D7018A1183124F258A150D30CE
:101B50000C1EA82D99000A300C1EAC2D9900062EE3
:101B60006D300C1EB12D99002C300C1EB52D990036
:101B700066088316D600D7018A1183124F258A156D
:101B80002C300C1EC12D990065088316D600D70194
:101B90008A1183124F258A152C300C1ECD2D9900E9
:101BA00064088316D600D7018A1183124F258A153F
:101BB0000D300C1ED92D99000A300C1EDD2D990018
:101BC000062E6D300C1EE22D99002C300C1EE62DD9
:101BD000990068088316D600D7018A1183124F2511
:101BE0008A152C300C1EF22D990067088316D6003A
:101BF000D7018A1183124F258A150D300C1EFE2D38
:101C000099000A300C1E022E9900062ECC2F6E3041
:101C10000C1E082E99002C300C1E0C2E99006B08FF
:101C20008316D600D7018A1183124F258A152C30CE
:101C30000C1E182E990069088316D600D7018A1148
:101C400083124F258A152C300C1E242E99006A0809
:101C50008316D600D7018A1183124F258A152C309E
:101C60000C1E302E99006E088316D600D7018A11FB
:101C700083124F258A152C300C1E3C2E99006D08BE
:101C80008316D600D7018A1183124F258A152C306E
:101C90000C1E482E99006C088316D600D7018A11B5
:101CA00083124F258A152C300C1E542E9900700873
:101CB0008316D600D7018A1183124F258A152C303E
:101CC0000C1E602E99006F088316D600D7018A116A
:101CD00083124F258A150D300C1E6C2E99000A3088
:101CE0000C1E702E9900CC2F6F300C1E752E990093
:101CF0002C300C1E792E990063088316D600D7016C
:101D00008A1183124F258A152C300C1E852E9900BE
:101D100061088316D600D7018A1183124F258A15D0
:101D20002C300C1E912E990062088316D600D70124
:101D30008A1183124F258A152C300C1E9D2E990076
:101D400066088316D600D7018A1183124F258A159B
:101D50002C300C1EA92E990065088316D600D701D9
:101D60008A1183124F258A152C300C1EB52E99002E
:101D700064088316D600D7018A1183124F258A156D
:101D80002C300C1EC12E990068088316D600D7018E
:101D90008A1183124F258A152C300C1ECD2E9900E6
:101DA00067088316D600D7018A1183124F258A153A
:101DB0000D300C1ED92E99000A300C1EDD2E990014
:101DC000CC2F4608F700303077020319F02E31305F
:101DD00077020319212F323077020319522F772F00
:101DE00070300C1EF12E99002C300C1EF52E99002F
:101DF0006B088316D600D7018A1183124F258A15E6
:101E00002C300C1E012F990069088316D600D701CB
:101E10008A1183124F258A152C300C1E0D2F990024
:101E20006A088316D600D7018A1183124F258A15B6
:101E30000D300C1E192F99000A300C1E1D2F990011
:101E4000772F70300C1E222F99002C300C1E262F5D
:101E500099006E088316D600D7018A1183124F2588
:101E60008A152C300C1E322F99006D088316D6006F
:101E7000D7018A1183124F258A152C300C1E3E2F54
:101E800099006C088316D600D7018A1183124F255A
:101E90008A150D300C1E4A2F99000A300C1E4E2F49
:101EA0009900772F70300C1E532F99002C300C1E88
:101EB000572F990070088316D600D7018A11831214
:101EC0004F258A152C300C1E632F99006F0883163E
:101ED000D600D7018A1183124F258A150D300C1EAA
:101EE0006F2F99000A300C1E732F9900772FCC2F7B
:101EF00045088316D60083120020CC2F7A300C1EA2
:101F00007F2F99000D300C1E832F99000A300C1E74
:101F1000872F99008A010028CC2F0030C01A013089
:101F20008316D600213083120C1A982F8316932F14
:101F300099008316560883120C1AA02F83169B2F24
:101F400099000D300C1EA22F99000A300C1EA62FEE
:101F500099000030C01A0130013C031DB02FC0129F
:101F6000CC2FBB01CC2F0330BB00CC2F0430BB00E7
:101F7000CC2F0530BB00CC2F0630BB00CC2F073058
:101F8000BB00CC2F0830BB00CC2F0930BB00CC2FBE
:101F90008A11C62E8A15CC2FD8018C128A110A12EA
:101FA0002928BE308400831300080319DC2FDA2FA0
:101FB00000000000800BD82F003483163F08403CFF
:101FC0000318E72F41303F020A3EC000EA2F3030AD
:101FD0003F02C0004008F8008312003483163E0818
:0C1FE000BF008A118312DD268A15003430
:10200000B53090008316A101A001A301A201FE0139
:10201000A401FD01FC01B901BC013C08093C031C01
:102020001D28A5303C07840083138001AF303C0796
:10203000840083138001BC0A0D28831207168715BC
:10204000061002308316BF000A128312DD260A161C
:10205000061402308316BF000A128312DD260A1608
:1020600006108A110A16F42A83163C08F700F708AE
:10207000831203194428013077020319B328023070
:102080007702031922296E290830F8001F08C73982
:1020900078049F001330F700F70B4C280000000075
:1020A0001F151F1951281E08E2000030F8001F08F4
:1020B000C73978049F001330F700F70B5D28000044
:1020C00000001F151F1962281E08E1001030F800DB
:1020D0001F08C73978049F001330F700F70B6E28EC
:1020E000000000001F151F1973281E08E3000615C5
:1020F00002308316BD009330BE000A128A15831287
:10210000D1270A168A118316BD0B7B2883121F154F
:102110001F1988281E086302EB000830F8001F080A
:10212000C73978049F001330F700F70B952800009B
:1021300000001F151F199A281E086202EA000030CD
:10214000F8001F08C73978049F001330F700F70B19
:10215000A728000000001F151F19AC281E086102E7
:10216000E90006116E292030F8001F08C7397804ED
:102170009F001330F700F70BBB28000000001F156D
:102180001F19C0281E08E5002830F8001F08C739AD
:1021900078049F001330F700F70BCC2800000000F4
:1021A0001F151F19D1281E08E6001830F8001F0857
:1021B000C73978049F001330F700F70BDD280000C3
:1021C00000001F151F19E2281E08E40086150230C2
:1021D0008316BD009330BE000A128A158312D127E0
:1021E0000A168A118316BD0BEA2883121F151F19C0
:1021F000F7281E086402EC002030F8001F08C739D9
:1022000078049F001330F700F70B0429000000004A
:102210001F151F1909291E086502ED002830F80056
:102220001F08C73978049F001330F700F70B1629F1
:10223000000000001F151F191B291E086602EE0072
:1022400086116E293030F8001F08C73978049F00C6
:102250001330F700F70B2A29000000001F151F1983
:102260002F291E08E7003830F8001F08C739780406
:102270009F001330F700F70B3B29000000001F15EB
:102280001F1940291E08E800861402308316BD007D
:102290009330BE000A128A158312D1270A168A11BA
:1022A0008316BD0B482983121F151F1955291E08B7
:1022B0006802F0003030F8001F08C73978049F002A
:1022C0001330F700F70B6229000000001F151F19DB
:1022D00067291E086802EF0086106E2905308316F4
:1022E000BF000A128312DD260A160034023083165C
:1022F000BC00831234203F087007BC003F086F0702
:10230000BD00A8018B1BA8178B133C088316D600B1
:102310001830D7000A1283124F250A16A81B8B17F4
:1023200020300C1E91299900A8018B1BA8178B1334
:102330003D088316D6001830D7000A1283124F25A5
:102340000A16A81B8B170A300C1EA42999000D3001
:102350000C1EA82999008A110A16032B4608831619
:10236000BF000A128A158312DD270A168A1178081F
:102370008316BD003D0EBE00F030BE058312470837
:102380008316BF000A128A158312DD270A168A11E6
:10239000780883163E07BD000530BE00FB30BF0045
:1023A0000A128312F1270A168316BC013C08013C6D
:1023B000031CE529FA30BE000A128A158312EE27A3
:1023C0000A168A118316BC0AD6293D08BE000A12D5
:1023D0008A158312EE270A168A118316BE01BF01E1
:1023E0000A128312F1270A168A110A16682B460868
:1023F0008316BF000A128A158312DD270A168A1176
:1024000078088316BD003D0EBE00F030BE05831275
:1024100047088316BF000A128A158312DD270A16A1
:102420008A11780883163E07BD00FB30BE000530D8
:10243000BF000A128312F1270A168316BC013C085A
:10244000013C031C2E2AFA30BE000A128A158312A0
:10245000EE270A168A118316BC0A1F2A3D08BE0001
:102460000A128A158312EE270A168A118316BE01F4
:10247000BF010A128312F1270A168A110A166A2B63
:1024800005308316BE00BF000A128312F1270A1618
:1024900001308316BC000A128312DE270A16831647
:1024A000BE01BF010A128312F1270A168A110A1609
:1024B000702BFB308316BE00BF000A128312F12777
:1024C0000A1601308316BC000A128312DE270A1690
:1024D0008316BE01BF010A128312F1270A168A1160
:1024E0000A16722B46088316BF000A128A15831239
:1024F000DD270A168A1178088316BC003C0EBD0041
:10250000F030BD05831247088316BF000A128A15F2
:102510008312DD270A168A11780883163D07BC004E
:10252000FB30BE00BF000A128312F1270A16831681
:102530003C08BE000A128A158312EE270A168A1179
:102540008316BE01BF010A128312F1270A168A11EF
:102550000A16802B02308316BC00831234207008C8
:102560003C020318C82A6F083D020318C82ABE0A95
:102570003E080A3C0318C82A40108316BE01BF015A
:102580000A128312F1270A1646300C1EC52A99003A
:102590008A110A16DD2B840183131F308305063050
:1025A00083169F000A3099002630980090308312DD
:1025B0009800C101C201C3014015C0154016C012E8
:1025C000D801D901DA01DB01DC01DD01DE01DF0127
:1025D000E001F501F601BE011E30BF00C01040143D
:1025E0000A12F12E0A16002801308316BC000A12C6
:1025F0008312DE270A168316BE01BF010A12831258
:10260000F1270A167629A8018B1BA8178B134130D6
:102610008316D6000A128A15831200200A168A1120
:10262000A81B8B17A8018B1BA8178B1329088316CF
:10263000DE001830DF000A128312F4240A16A81BE9
:102640008B170A300C1E222B99000D300C1E262BE6
:1026500099003B08023C0318D62B3B080A3C031C9C
:10266000D62BA8018B1BA8178B133B088316D6000B
:102670001830D7000A1283124F250A16A81B8B1791
:1026800020300C1E412B99003B08F70003307702E5
:102690000319672B043077020319692B0530770281
:1026A00003196B2B0630770203196F2B0730770263
:1026B0000319712B083077020319732B0930770245
:1026C00003197F2B0A3077020319812BD42BAE29F3
:1026D000D52BF729D52B4014BE01C014D52B402A89
:1026E000D52B592AD52B46088316BF000A128A1506
:1026F0008312DD270A168A117808BF00D52B722AAB
:10270000D52BA8018B1BA8178B1345088316D60061
:102710000A128A15831200200A168A11A81B8B1729
:102720008316BA013A08113C031CD22B29303A0710
:10273000840083130008BC008312A8018B1BA81718
:102740008B1383163A08DC005730DD000A1283121F
:1027500094250A16A81B8B1720300C1EAD2B990050
:102760003D300C1EB12B990020300C1EB52B99006A
:10277000A8018B1BA8178B1383163C08DE001830AA
:10278000DF000A128312F4240A16A81B8B170A30E2
:102790000C1EC82B99000D300C1ECC2B99008316F3
:1027A000BA0A922B8312D52BD52BBB0100304018CF
:0E27B0000130013C031DDD2BAA2A292B6300FA
:02400E003A3D39
:00000001FF
;PIC16F877
