:020000040000FA
:1000000021EF00F0C80E0B6E0B06D8B412EF00F013
:100010009EBA12EF00F0100E006E002EFED7000008
:1000200004EF00F0000C93928A8202EC00F09392AD
:100030008A9293968A8602EC00F093968A9638EF1D
:1000400000F0EA6AE96A0F0EC16E810EAF6E260EED
:10005000AC6E900EAB6E000E936E066A300E066E9E
:10006000310E076E06C009F007C00AF013EF00F06A
:100070009EAA38EF00F0AE50086E0852D8B455EF83
:1000800000F008509EA842EF00F0AD6E200E9EA832
:1000900047EF00F0AD6E0A0E9EA84CEF00F0AD6E7B
:1000A0000D0E9EA851EF00F0AD6E32EF00F0030090
:020000040030CA
:0C000000FFFAFFFFFFFFFFFFFFFFFFFF05
:00000001FF
;PIC18F452
