:1000000008308A00D9280000FF00030E8301A100F8
:100010000A08A0008A010408A2007708A300780853
:10002000A4007908A5007A08A6007B08A70083131E
:1000300083128C308400801E1F288C1A3C288C3040
:100040008400001C25280C183F288B1E29280B191A
:100050004228220884002308F7002408F800250815
:10006000F9002608FA002708FB0020088A00210E64
:100070008300FF0E7F0E09008A110A121E2A8A11C0
:100080000A12AD2B8A110A124F2A0A108A100A117D
:100090008207413444344E3453342D3432343034B6
:1000A000353431344D34203400340A108A100A11AA
:1000B0008207323433342D344A3461346E342D3473
:1000C0003034373400340A108A100A118207313470
:1000D00034343A34313439343A3434343134003409
:1000E0000A108A100A118207503472346F34643453
:1000F0007534633474345F346934643420343D348B
:100100002034253478340A340D3400340A108A102F
:100110000A118207503472346F3464347534633496
:1001200074345F34763465347234733469346F34C4
:100130006E3420343D342034253478340A340D3480
:1001400000340A108A100A1182074D346F34743457
:1001500069346F346E3420343D342034253478349F
:100160000A340D3400340A108A100A11820744340C
:1001700065346C34743461345F34783420343D3405
:100180002034253478340A340D3400340A108A10AF
:100190000A118207443465346C34743461345F343A
:1001A000793420343D342034253478340A340D3405
:1001B00000340A108A100A1182075334553452341D
:1001C00046344134433445345F345134553441343A
:1001D0004C3449345434593420343D34203425349B
:1001E00078340A340D3400340A108A100A11FB3EA8
:1001F00003188A0A8200413456344534523441345B
:10020000473445345F3450344934583445344C34E1
:1002100020343D342034253478340A340D3400340D
:100220000A148A100A1182074D3441345834493473
:100230004D3455344D345F3450344934583445349A
:100240004C3420343D342034253478340A340D3491
:1002500000340A148A100A1182074F344E3446348F
:10026000493447345F3442344934543453342034AD
:100270003D342034253478340A340D3400340A14E3
:100280008A100A1182075334483455345434543494
:10029000453452345F34553450345034453452343C
:1002A00020343D342034253478340A340D3400347D
:1002B0000A148A100A1182075334483455345434CE
:1002C0005434453452345F344C344F34573445340D
:1002D000523420343D342034253478340A340D34FB
:1002E00000340A148A100A11820746345234413409
:1002F0004D3445345F3450344534523449344F34EE
:1003000044345F34553450345034453452342034FE
:100310003D342034253478340A340D3400340A1442
:100320008A100A1182074634523441344D34453420
:100330005F3450344534523449344F3444345F349C
:100340004C344F3457344534523420343D34203407
:10035000253478340A340D3400340A148A100A1112
:10036000820753344F3444340A340D3400340A14B1
:100370008A100A11820750346934783465346C3439
:1003800020343D342034253478342C342034253442
:1003900078340A340D3400340A148A100A118207A2
:1003A00045344F3444340A340D3400340A148A106E
:1003B0000A118207413444344E34533432343034D9
:1003C00035343134203472346534733465347434E4
:1003D0000A340D3400340A148A100A11F23E03184C
:1003E0008A0A820050346F347334203458342C34E9
:1003F000593420343A34203425346C346434203475
:1004000025346C34643420344034203425346C3446
:1004100075340A340D3400340A108A140A11820724
:1004200058342C34593420343A342034253464344C
:100430002C34253464340A340D3400348C1E1E2AC6
:100440001A08DF0000302D1B0130003A031D2A2A54
:100450002D17DE015F080D3C031D372A2D13AD1645
:100460004D305E07840083138001DE01422A5E085E
:100470000F3C031C422A4D305E07840083135F0843
:100480008000DE0A8C128A110A1229288316590864
:100490008312AE0083165A088312AF000034B60AE6
:1004A0003608053C031D5D2AB6010130B20703186A
:1004B000B30A0319B40A0319B50A00302D18013024
:1004C000003A031D6C2A0030AD180130013C031DB9
:1004D0006C2AAE01AF01AD10AE1B7E2A2E080F3C78
:1004E0003007F700F71B7B2A77080E3C03187B2A9E
:1004F000081088107D2A081488108E2A2E08003CC7
:100500000F3C3007F700F71B8C2A77080E3C0318C6
:100510008C2A081088108E2A08108814AF1BA02A75
:100520002F080F3C3007F700F71B9D2A77080E3C79
:1005300003189D2A081188119F2A08158811B02ACE
:100540002F08003C0F3C3007F700F71BAE2A770856
:100550000E3C0318AE2A08118811B02A081188151C
:10056000B00A30080F3C0318B62AB0014B08F70058
:10057000013077020319C52A033077020319EF2AE5
:10058000643077020319102B352B00302D19013000
:10059000013C031DEE2A3030F8001F08C7397804EB
:1005A0009F001330F700F70BD32A000000001F153F
:1005B0001F19D82A1E08BD003830F8001F08C73997
:1005C00078049F001330F700F70BE42A00000000C6
:1005D0001F151F19E92A1E08BE008614352B00308E
:1005E0002D190130013C031D0F2B1F151F19F62A71
:1005F0001E083E02C6003030F8001F08C7397804D4
:100600009F001330F700F70B032B000000001F15AD
:100610001F19082B1E083E02C50086102D16352B0B
:1006200000302D180130013C031D342B00302D1AF1
:100630000130013C031D342B460829020318332BDB
:1006400045082A020318332BAB0A2B08033C031876
:10065000332B2D108316D901DA018312462246303E
:100660000C1E302B99002D12352BCB0A0B118A1141
:100670000A12292883165D08DF00DE015E08073CA8
:10068000031C672B8312E011600883168700831216
:10069000871103108316DF0D0318522B83120712E4
:1006A000542B831683120716601260088316870086
:1006B0008312E011600883168700831287151030BB
:1006C000F700F70B612B00008316DE0A3E2B831226
:1006D00000346016600883168700A630F700F70B19
:1006E0006F2B0000DD015D08073C031C992B831272
:1006F000E011600883168700831287111030F7001D
:10070000F70B802B000060166008831687008312A9
:10071000071A8C2B03108D2B03148316DE0D831206
:10072000E011600883168700831287158316DD0A9F
:10073000732BFA015E08F8007A08F900831200347E
:1007400083165B08DD0083123A2369237808831639
:10075000DC005C08F800831200340B308F00DB30C3
:100760008E00F30A0319F40A02308316DB008312A9
:10077000A0237808E300E31FF12B03308316DB008E
:100780008312A0237808FE0004308316DB00831256
:10079000A02378088316A000A130490784008313A2
:1007A0007E088000B530490784008313200880004C
:1007B000C90A4908143C031DDE2BC901FA017E0851
:1007C000FE1BFA03F5070318F60A7A08F607FA0182
:1007D0002008A01BFA03FC070318FD0A7A08FD078E
:1007E00083120C108A110A122928D0308400831336
:1007F00000080319082C0630F800F701F70BFE2B50
:10080000F80BFD2B7B30F700F70B042C800BFB2B38
:1008100000348316CE014D084E0203181A2C043002
:10082000CF00FA30D0008312F5238316CF0B112CA2
:10083000CE0A0B2C83120034CF30840083130008BF
:100840000319272C252C00000000800B232C0034DA
:1008500083165308F80152020318312C5208F7008E
:100860003D2CF7010830D400D20DF70D5308770264
:100870000318F700F80DD40B342C831200347808D9
:1008800083164D08D2006430D300831228247708E1
:100890008316CD0078083030031D552C4E18602C7F
:1008A000CE19602C4E1A2030572CCE114E12F8075C
:1008B000780883120C1A5E2C8316592C9900831623
:1008C0004D08D2000A30D3008312282477088316FB
:1008D000CD0078083030031D712CCE197A2C4E1AB9
:1008E0002030F807780883120C1A782C8316732CA2
:1008F000990083163030CD074D0883120C1A822CD4
:1009000083167D2C9900003402308316CD004D08EB
:10091000F700F70883120319962C013077020319A8
:10092000012D0230770203196C2DB32D0830F80029
:100930001F08C73978049F001330F700F70B9E2C6F
:10094000000000001F151F19A32C1E08B80000305E
:10095000F8001F08C73978049F001330F700F70B21
:10096000AF2C000000001F151F19B42C1E08B70083
:100970001030F8001F08C73978049F001330F700C3
:10098000F70BC02C000000001F151F19C52C1E08F6
:10099000B900061502308316CE009330CF008312C3
:1009A0001C248316CE0BCD2C83121F151F19D62C99
:1009B0001E083902C1000830F8001F08C739780442
:1009C0009F001330F700F70BE32C000000001F1509
:1009D0001F19E82C1E083802C0000030F8001F085C
:1009E000C73978049F001330F700F70BF52C00008F
:1009F00000001F151F19FA2C1E083702BF00061130
:100A0000B32D2030F8001F08C73978049F00133039
:100A1000F700F70B092D000000001F151F190E2D00
:100A20001E08BB002830F8001F08C73978049F0053
:100A30001330F700F70B1A2D000000001F151F19C7
:100A40001F2D1E08BC001830F8001F08C739780495
:100A50009F001330F700F70B2B2D000000001F152F
:100A60001F19302D1E08BA00861502308316CE00DD
:100A70009330CF0083121C248316CE0B382D8312A3
:100A80001F151F19412D1E083A02C2002030F80020
:100A90001F08C73978049F001330F700F70B4E2D5D
:100AA000000000001F151F19532D1E083B02C30034
:100AB0002830F8001F08C73978049F001330F7006A
:100AC000F70B602D000000001F151F19652D1E0873
:100AD0003C02C4008611B32D3030F8001F08C7391E
:100AE00078049F001330F700F70B742D000000000E
:100AF0001F151F19792D1E08BD003830F8001F087A
:100B0000C73978049F001330F700F70B852D0000DC
:100B100000001F151F198A2D1E08BE008614023002
:100B20008316CE009330CF0083121C248316CE0B85
:100B3000922D83121F151F199B2D1E083E02C60001
:100B40003030F8001F08C73978049F001330F700D1
:100B5000F70BA82D000000001F151F19AD2D1E0852
:100B60003E02C500861005308316D0008312F5239F
:100B70002C084607A9002C084507AA002908831657
:100B8000CD001830CE0083123F2420300C1EC62D1D
:100B900099002A088316CD001830CE0083123F2416
:100BA0000A300C1ED12D99000D300C1ED52D990048
:100BB00000348316CF1BF12D0F30F7004E0EF705D2
:100BC0000A3077020318E72D3030F707E92D4F0878
:100BD000F707770883120C1AEF2D8316EA2D990078
:100BE00083160F30CE050A304E020318F92D30302F
:100BF000FB2DCF134F08CE074E0883120C1A022E7E
:100C00008316FD2D9900003483164D088038CF00DF
:100C10008312A8018B1BA8178B1383164F08DD00C6
:100C200083123A23A81B8B1783164E08CF004F0858
:100C3000D100D0015008073C031C432E8312E01161
:100C40006008831687008312871103108316D10D65
:100C500003182E2E83120712302E831683120716C6
:100C600060126008831687008312E0116008831603
:100C70008700831287151030F700F70B3D2E000018
:100C80008316D00A1A2E831200348316D601040864
:100C9000D5005610831B5614CF1F5C2E2D308312A7
:100CA0000C1A542E83164F2E990084038316CE09F6
:100CB000CF09CE0A0319CF0A4F0EF038D100D10761
:100CC000E23ED200323ED4004F080F39D207D2079D
:100CD000D407E93ED300D307D3074E0E0F39D3070D
:100CE000D407D30DD40DD409D40D4E080F39D40731
:100CF000D10D0730D0000A30D407D303031C7C2E5B
:100D0000D307D203031C802ED207D103031C842EE9
:100D1000D107D003031C882ED03084008313073002
:100D200055058407D43004020319AE2E0008F700DD
:100D3000031DA02E551AAC2ED519A22E2030A32E9D
:100D40000830D5003030F707770883120C1AAA2E26
:100D50008316A52E99008316840A922E0008F700A8
:100D60003030F707770883120C1AB82E8316B32E8B
:100D7000990000348316D6010408D5005610831B51
:100D800056144F0EF038D100D107E23ED200323E69
:100D9000D4004F080F39D207D207D407E93ED30059
:100DA000D307D3074E0E0F39D307D407D30DD40D75
:100DB000D409D40D4E080F39D407D10D0730D00017
:100DC0000A30D407D303031CE12ED307D203031C3C
:100DD000E52ED207D103031CE92ED107D003031C53
:100DE000ED2ED03084008313073055058407D430AE
:100DF00004020319132F0008F700031D052F551ACD
:100E0000112FD519072F2030082F0830D50030308A
:100E1000F707770883120C1A0F2F83160A2F9900F1
:100E20008316840AF72E0008F7003030F70777089A
:100E300083120C1A1D2F8316182F99008A150A1277
:100E4000192E83165008F700D01B2A2F511D392F59
:100E500020302F2FF709F70A7708D0002D30F8003F
:100E600083120C1A352F8316302F99008316511DCB
:100E7000D1155008D2006430D3008312282477089B
:100E80008316D00078083030031D4D2F5118582F8D
:100E9000D119582F511A20304F2FD1115112F80764
:100EA000780883120C1A562F8316512F9900831637
:100EB0005008D2000A30D300831228247708831602
:100EC000D00078083030031D692FD119722F511AC4
:100ED0002030F807780883120C1A702F83166B2FB6
:100EE000990083163030D007500883120C1A7A2FDD
:100EF0008316752F9900003400302D1A0130013C03
:100F0000031D9C2F46088316CD001830CE00831297
:100F10003F2420300C1E8A2F990045088316CD00EF
:100F20001830CE0083123F240A300C1E952F9900F2
:100F30000D300C1E992F99002D128A150A12782E49
:100F400083165008403C0318AA2F413050020A3E35
:100F5000D100AD2F30305002D1005108F80083127B
:100F6000003483164F08D0008312F52300344F0855
:100F70008316D0008312A02778088316CE004E0E69
:100F8000CF00F030CF05831250088316D0008312B3
:100F9000A027780883164F07CE008312A8018B1B69
:100FA000A8178B1305308316D900FB30DA008312A3
:100FB0004622A81B8B178316CD014D08013C031C4C
:100FC000E82FFA30CF008312B1278316CD0ADD2F28
:100FD0004E08CF008312B127A8018B1BA8178B13D3
:100FE0008316D901DA0183124622A81B8B178A15B2
:040FF0000A127C2E37
:101000004F088316D0008A118312A0278A1578080A
:101010008316CE004E0ECF00F030CF05831250085D
:101020008316D0008A118312A0278A1578088316A8
:101030004F07CE008312A8018B1BA8178B13FB3020
:101040008316D9000530DA008A11831246228A15E8
:10105000A81B8B178316CD014D08013C031C3928B2
:10106000FA30CF008A118312B1278A158316CD0A70
:101070002C284E08CF008A118312B1278A15A801A7
:101080008B1BA8178B138316D901DA018A118312DF
:1010900046228A15A81B8B178A150A127F2EA801D3
:1010A0008B1BA8178B1305308316D900DA008A1121
:1010B000831246228A15A81B8B1701308316CD0098
:1010C0008A11831209248A15A8018B1BA8178B1378
:1010D0008316D901DA018A11831246228A15A81BC8
:1010E0008B178A150A12852EA8018B1BA8178B1344
:1010F000FB308316D900DA008A11831246228A1542
:10110000A81B8B1701308316CD008A118312092486
:101110008A15A8018B1BA8178B138316D901DA0136
:101120008A11831246228A15A81B8B178A150A1268
:10113000872E4F088316D0008A118312A0278A15A4
:1011400078088316CD004D0ECE00F030CE05831208
:1011500050088316D0008A118312A0278A157808B8
:1011600083164E07CD008312A8018B1BA8178B1383
:10117000FB308316D900DA008A11831246228A15C1
:10118000A81B8B1783164D08CF008A118312B12735
:101190008A15A8018B1BA8178B138316D901DA01B6
:1011A0008A11831246228A15A81B8B178A150A12E8
:1011B000932E840183131F308305063083169F000E
:1011C0000A30990026309800903083129800AE01C2
:1011D000AF01B0012D15AD152D12B101B201B30152
:1011E000B401B501B601CB01CC01AD122D13DE0166
:1011F000DF01FF30E000AE01AF01B701B801B90176
:10120000BA01BB01BC01BD01BE01BF01C001C101EA
:10121000C201C301C401C501C601C701C801C9019A
:10122000CA01F601F501FD01FC01FE018316A001D2
:10123000F401F301C901CA014A08133C031C2C291B
:10124000A1304A07840083138001B5304A07840027
:1012500083138001CA0A1C298312AB011E30AC0023
:10126000AD102D14941200309400831694000912CE
:10127000F701F71D46290730831281018130840070
:1012800083130008C0390F38800083166400813052
:1012900084000008C0397704800083129001003078
:1012A000F800920000308316920083129701970194
:1012B0009D019D012F30831685003030860000305F
:1012C00088000914891409151030831285008601DD
:1012D0008801890183168117831207168715061066
:1012E00083169F0183121F083839C1389F00831667
:1012F0000108C0390138810083128101A5309000B6
:101300008F018E018B1683160C148C16C03083123D
:101310008B040A308316D0008A118312F5238A15B4
:101320008316CD014D088A11831245208A15831634
:10133000CD0AF70083120C1A9F2983169A29990067
:101340000B3083164D02031D9229CD014D088A11E1
:10135000831255208A158316CD0AF70083120C1AC2
:10136000B3298316AE299900093083164D02031D57
:10137000A629203083120C1ABF298316BA29990096
:1013800040300C1EC129990020300C1EC52999003F
:101390008316CD014D088A11831263208A158316A6
:1013A000CD0AF70083120C1AD7298316D229990087
:1013B000083083164D02031DCA290D3083120C1A02
:1013C000E3298316DE2999000A300C1EE5299900CD
:1013D000A8018B1BA8178B138316D901DA018A1178
:1013E000831246228A15A81B8B1701308316CD0065
:1013F0008A11831209248A158A1184248A150030DF
:10140000AD1A0130013C031DA22E4D08F7004130FA
:10141000770203195C2A423077020319922A43307B
:1014200077020319C92A443077020319002B45308B
:1014300077020319A32B473077020319462C483053
:1014400077020319B12C4930770203191A2D523053
:1014500077020319B52D4A3077020319D52D4B3089
:1014600077020319232E5130770203196D2E313084
:1014700077020319722E323077020319762E333039
:10148000770203197A2E3430770203197E2E353015
:1014900077020319802E363077020319842E3730F5
:1014A00077020319862E383077020319882E3930D7
:1014B00077020319922E942EA8018B1BA8178B1369
:1014C0008316DB018A118312A0238A15A81B8B17B0
:1014D0007808E1008316CD014D088A11831270202F
:1014E0008A158316CD0AF70083120C1A792A8316FF
:1014F000742A99000D3083164D02031D6C2A831245
:1015000061088316CE005730CF008A118312D92587
:101510008A150A300C1E8A2A99000D300C1E8E2A5C
:101520009900952EA8018B1BA8178B1301308316E9
:10153000DB008A118312A0238A15A81B8B17780859
:10154000E2008316CD014D088A11831286208A1588
:101550008316CD0AF70083120C1AB02A8316AB2A21
:101560009900123083164D02031DA32A83126208CC
:101570008316CE005730CF008A118312D9258A15E1
:101580000A300C1EC12A99000D300C1EC52A990084
:10159000952EA8018B1BA8178B1302308316DB0036
:1015A0008A118312A0238A15A81B8B177808E300E1
:1015B0008316CD014D088A118312A1208A15831646
:1015C000CD0AF70083120C1AE72A8316E22A990043
:1015D000093083164D02031DDA2A8312630883162D
:1015E000CE005730CF008A118312D9258A150A30D0
:1015F0000C1EF82A99000D300C1EFC2A9900952E1D
:10160000A8018B1BA8178B1303308316DB008A11EC
:101610008312A0238A15A81B8B177808E400831671
:10162000CD014D088A118312B3208A158316CD0A85
:10163000F70083120C1A1E2B8316192B99000A30FF
:1016400083164D02031D112B831264088316CE00EE
:101650005730CF008A118312D9258A150A300C1E03
:101660002F2B99000D300C1E332B9900A8018B1BDA
:10167000A8178B1304308316DB008A118312A02372
:101680008A15A81B8B177808E5008316CD014D0835
:101690008A118312C6208A158316CD0AF700831299
:1016A0000C1A542B83164F2B99000A3083164D02C7
:1016B000031D472B831265088316CE005730CF00D9
:1016C0008A118312D9258A150A300C1E652B9900C0
:1016D0000D300C1E692B9900A8018B1BA8178B13CA
:1016E00005308316DB008A118312A0238A15A81BFC
:1016F0008B177808E6008316CD014D088A118312F6
:10170000D9208A158316CD0AF70083120C1A8A2B6A
:101710008316852B9900123083164D02031D7D2BF5
:10172000831266088316CE005730CF008A118312C9
:10173000D9258A150A300C1E9B2B99000D300C1EE2
:101740009F2B9900952EA8018B1BA8178B13063091
:101750008316DB008A118312A0238A15A81B8B171E
:101760007808E7008316CD014D088A118312F42012
:101770008A158316CD0AF70083120C1AC12B831623
:10178000BC2B9900103083164D02031DB42B83121D
:1017900067088316CE005730CF008A118312D925EF
:1017A0008A150A300C1ED22B99000D300C1ED62B38
:1017B0009900A8018B1BA8178B1307308316DB0039
:1017C0008A118312A0238A15A81B8B177808E800BA
:1017D0008316CD014D088A11831210218A158316B4
:1017E000CD0AF70083120C1AF72B8316F22B9900FF
:1017F000103083164D02031DEA2B831268088316EE
:10180000CE005730CF008A118312D9258A150A30AD
:101810000C1E082C99000D300C1E0C2C9900A801F0
:101820008B1BA8178B130A308316DB008A118312D7
:10183000A0238A15A81B8B177808EB008316CD010F
:101840004D088A11831229218A158316CD0AF700C3
:1018500083120C1A2D2C8316282C99000D30831618
:101860004D02031D202C83126B088316CE005730C7
:10187000CF008A118312D9258A150A300C1E3E2CFE
:1018800099000D300C1E422C9900952EA8018B1B3F
:10189000A8178B130F308316DB008A118312A02345
:1018A0008A15A81B8B177808F0008316CD014D0808
:1018B0008A1183123F218A158316CD0AF7008312FD
:1018C0000C1A642C83165F2C9900103083164D027D
:1018D000031D572C7008CE005730CF008A11831299
:1018E000D9258A150A300C1E732C99000D300C1E58
:1018F000772C9900A8018B1BA8178B130E30831629
:10190000DB008A118312A0238A15A81B8B17780885
:10191000EF008316CD014D088A11831258218A15D4
:101920008316CD0AF70083120C1A982C8316932C79
:101930009900103083164D02031D8B2C83126F0803
:101940008316CE005730CF008A118312D9258A150D
:101950000A300C1EA92C99000D300C1EAD2C9900DC
:10196000952EA8018B1BA8178B1311308316DB0053
:101970008A118312A0238A15A81B8B177808F200FE
:101980008316CD014D088A11831271218A158316A1
:10199000CD0AF70083120C1ACF2C8316CA2C99009B
:1019A000153083164D02031DC22C7208CE0057302D
:1019B000CF008A118312D9258A150A300C1EDE2C1D
:1019C00099000D300C1EE22C9900A8018B1BA81762
:1019D0008B1310308316DB008A118312A0238A1523
:1019E000A81B8B177808F1008316CD014D088A11CA
:1019F00083128F218A158316CD0AF70083120C1AE1
:101A0000032D8316FE2C9900153083164D02031DFD
:101A1000F62C7108CE005730CF008A118312D925D9
:101A20008A150A300C1E122D99000D300C1E162D31
:101A30009900952E0A308316CD000830CE008A1109
:101A4000831204268A158316CD014D088A1183124C
:101A5000AD218A158316CD0AF70083120C1A322D98
:101A600083162D2D9900053083164D02031D252D5B
:101A7000CA014A0F3C2D982D8312A8018B1BA81771
:101A80008B130C308316DB008A118312A0238A1576
:101A9000A81B8B1778088316CB00CB1B3C2D831219
:101AA000A8018B1BA8178B130D308316DB008A113E
:101AB0008312A0238A15A81B8B1778088316CC00E5
:101AC000CD014D088A118312B7218A158316CD0ADC
:101AD000F70083120C1A6E2D8316692D99000830B9
:101AE00083164D02031D612D4C08CE005730CF00E8
:101AF0008A118312D9258A152C300C1E7D2D990050
:101B000020300C1E812D990083164B08CE005730D3
:101B1000CF008A118312D9258A150A300C1E8E2D0A
:101B200099000D300C1E922D99008316CA0A392D8A
:101B3000CD014D088A118312CC218A158316CD0A56
:101B4000F70083120C1AA62D8316A12D99000530DB
:101B500083164D02031D992D0A30CD004030CE0072
:101B60008A11831204268A15952E0A308316CD0019
:101B70008030CE008A11831204268A158316CD0187
:101B80004D088A118312D6218A158316CD0AF700D3
:101B900083120C1ACD2D8316C82D99001030831690
:101BA0004D02031DC02D8312952E8316CD014D08C5
:101BB0008A118312EB218A158316CD0AF70083124E
:101BC0000C1AE42D8316DF2D99000A3083164D027E
:101BD000031DD72D103084007608CF007508CE0085
:101BE0008A11831245268A1520300C1EF52D990086
:101BF000103084007D088316CF007C08CE008A1147
:101C0000831245268A1520300C1E042E9900403080
:101C10000C1E082E990020300C1E0C2E990010303E
:101C2000840074088316CF007308CE008A118312D3
:101C3000BA2E8A150A300C1E1B2E99000D300C1E70
:101C40001F2E9900952E8316CA014A08133C031CC7
:101C50006B2E0C10A1304A07840083130008CD00BE
:101C6000B5304A07840083130008CE00CF014F0827
:101C70008A1183120C228A158316CF0AF700831269
:101C80000C1A442E83163F2E9900063083164F02FD
:101C9000031D372E4D08D0001830D1008A11831251
:101CA00021278A152C300C1E532E990083164E08BE
:101CB000D0001830D1008A11831221278A150A30EA
:101CC0000C1E602E99000D300C1E642E9900831698
:101CD0000C14CA0A252E8312952EF601F501FD017A
:101CE000FC01952E8A1184248A15952E8A117C2F49
:101CF0008A15952E8A11B72F8A15952E0028952EB4
:101D00002D14AB01AD14952E4F28952E7428952EC9
:101D10004F088316D0008A118312A0278A157808ED
:101D2000AC00952E9928952E952EAD124D080C1EBF
:101D3000972E99000A300C1E9B2E99000D300C1E18
:081D40009F2E9900FF296300AA
:02400E00FA3F77
:00000001FF
;PIC16F877
